:100000000C942A000C94B21F0C9447000C944700E7
:100010000C9447000C9447000C9447000C94470044
:100020000C9447000C9447000C9447000C94470034
:100030000C9447000C9447000C9447000C94470024
:100040000C9447000C9447000C9447000C94470014
:100050000C94470011241FBECFE5D8E0DEBFCDBF12
:1000600012E0A0E6B0E0EEEBF0E502C005900D92E4
:10007000A030B107D9F712E0A0E0B2E001C01D92B4
:10008000A630B107E1F70E9417070C945D280C9485
:100090000000EF92FF920F931F937B018C0120E0F1
:1000A00030E040E05FE40E94F50388238CF0C80153
:1000B000B70120E030E040E05FE40E94C1010E940F
:1000C00055049B01AC01205030404040504806C0D0
:1000D000C801B7010E9455049B01AC01B901CA01D6
:1000E0001F910F91FF90EF900895A0E0B0E0EBE733
:1000F000F0E00C942628DC012B01FA019C9192304F
:1001000008F439C1EB018881823008F433C194309E
:1001100069F4843009F02FC111969C91119789815F
:10012000981709F428C1AEEEB0E025C1843009F477
:1001300021C18230A9F4923009F01DC19A01AD01AC
:1001400088E0EA010990AE01E90109929E0181501F
:10015000C1F7E201898111969C918923818308C1AD
:10016000923009F407C112962D903C901397EB0141
:100170008A819B811496AD90BD90CD90DC901797AD
:10018000EC80FD800E811F819101281B390BB90184
:1001900037FF04C066277727621B730B6032710537
:1001A0000CF061C0121613066CF537014801062EDB
:1001B00004C096948794779467940A94D2F721E0C8
:1001C00030E040E050E004C0220F331F441F551FB1
:1001D0006A95D2F721503040404050402E213F21B7
:1001E00040235123211531054105510521F021E01E
:1001F00030E040E050E079018A01E628F72808293C
:1002000019293CC0232BD1F1260E371E350146019A
:10021000062E04C096948794779467940A94D2F734
:1002200021E030E040E050E004C0220F331F441FC3
:10023000551F6A95D2F721503040404050402A2146
:100240003B214C215D21211531054105510521F04E
:1002500021E030E040E050E059016A01A628B728CB
:10026000C828D9280BC0821593052CF01C01AA249C
:10027000BB24650103C0EE24FF24870111969C91E5
:10028000D20111968C91981709F445C0992339F041
:10029000A80197012A193B094C095D0906C0A6016E
:1002A00095012E193F09400B510B57FD08C01182D3
:1002B0003382228224833583468357831DC081E0A5
:1002C00081833382228288279927DC01821B930B4A
:1002D000A40BB50B84839583A683B7830DC0220F2F
:1002E000331F441F551F24833583468357838281E0
:1002F000938101979383828324813581468157813D
:10030000DA01C9010197A109B1098F5F9F4FAF4F72
:10031000BF4328F30BC0918333822282EA0CFB1C7B
:100320000C1D1D1DE482F5820683178383E0808304
:10033000248135814681578157FF1AC0C901AA27F8
:1003400097FDA095BA2F81709070A070B0705695EF
:10035000479537952795822B932BA42BB52B848318
:100360009583A683B7838281938101969383828349
:10037000DF0101C0D201CD01CDB7DEB7E2E10C94BF
:100380004228A0E2B0E0E7ECF1E00C943228698367
:100390007A838B839C832D833E834F835887E9E048
:1003A000EE2EF12CEC0EFD1ECE010196B7010E943F
:1003B00046068E010F5E1F4FCE010596B8010E94C2
:1003C00046068A8991E089278A8BC701B801AE0168
:1003D000475E5F4F0E9475000E947105A096E6E09F
:1003E0000C944E28A0E2B0E0E8EFF1E00C94322843
:1003F00069837A838B839C832D833E834F835887C5
:10040000F9E0EF2EF12CEC0EFD1ECE010196B701A6
:100410000E9446068E010F5E1F4FCE010596B80161
:100420000E944606C701B801AE01475E5F4F0E94B9
:1004300075000E947105A096E6E00C944E28A0E29B
:10044000B0E0E5E2F2E00C94262869837A838B839E
:100450009C832D833E834F835887CE010196BE0136
:10046000675F7F4F0E944606CE010596BE016F5E14
:100470007F4F0E9446069985923088F089898230A4
:10048000C8F0943019F4823051F404C0843029F457
:10049000923081F48EEE90E0C6C0923049F420E0B4
:1004A0009A858A89981321E02A87CE010996BBC0D4
:1004B000823049F420E09A858A89981321E02A8BBA
:1004C000CE014196B0C02D843E844F8458886D88FB
:1004D0007E888F88988CEE24FF248701AA24BB2471
:1004E000650140E050E060E070E0E0E0F0E0C10174
:1004F00081709070892BE9F0E60CF71C081D191D1E
:100500009A01AB012A0D3B1D4C1D5D1D80E090E062
:10051000A0E0B0E0E614F7040805190520F481E036
:1005200090E0A0E0B0E0BA01A901480F591F6A1F8E
:100530007B1FAA0CBB1CCC1CDD1C97FE08C081E0F5
:1005400090E0A0E0B0E0A82AB92ACA2ADB2A3196B6
:10055000E032F10549F0660C771C881C991C569412
:10056000479437942794C3CFFA85EA892B893C892D
:100570008B859C85280F391F2E5F3F4F17C0CA01FE
:1005800081709070892B61F016950795F794E79428
:1005900080E090E0A0E0B0E8E82AF92A0A2B1B2BC3
:1005A00076956795579547952F5F3F4F77FDE7CF36
:1005B0000CC0440F551F661F771F17FD4160EE0CDE
:1005C000FF1C001F111F21503040403090E05907A0
:1005D00090E0690790E4790760F32B8F3C8FDB0193
:1005E000CA018F779070A070B07080349105A1051A
:1005F000B10561F447FD0AC0E114F10401051105DC
:1006000029F0405C5F4F6F4F7F4F40781A8EFE1786
:1006100011F081E08A8F4D8F5E8F6F8F78A383E01A
:10062000898FCE0149960E947105A096E2E10C9453
:100630004228A8E1B0E0EFE1F3E00C942E286983B2
:100640007A838B839C832D833E834F835887B9E0C5
:10065000EB2EF12CEC0EFD1ECE010196B7010E948F
:1006600046068E010F5E1F4FCE010596B8010E940F
:1006700046062985223008F47EC03989323010F4CC
:10068000B8017CC08A859A8989278A87243011F02D
:10069000223031F4231709F06EC06EEE70E06EC0A8
:1006A000343039F41D861E861F86188A1C861B86E8
:1006B00004C0323021F484E08987B7015FC02B8504
:1006C0003C858B899C89281B390B3C872B87ED84C3
:1006D000FE840F851889AD88BE88CF88D88CEA142F
:1006E000FB040C051D0540F4EE0CFF1C001F111F40
:1006F000215030403C872B8720E030E040E050E044
:1007000080E090E0A0E0B0E460E070E0EA14FB0478
:100710000C051D0540F0282B392B4A2B5B2BEA18C2
:10072000FB080C091D09B695A79597958795EE0CC2
:10073000FF1C001F111F6F5F7F4F6F31710531F775
:10074000DA01C9018F779070A070B0708034910584
:10075000A105B10561F427FD0AC0E114F10401050A
:10076000110529F0205C3F4F4F4F5F4F20782D87B8
:100770003E874F87588BBE01675F7F4FCB010E943A
:1007800071056896EAE00C944A28A8E1B0E0EBEC29
:10079000F3E00C94322869837A838B839C832D83C6
:1007A0003E834F83588789E0E82EF12CEC0EFD1E26
:1007B000CE010196B7010E9446068E010F5E1F4FC3
:1007C000CE010596B8010E9446068985823040F028
:1007D0008989823028F0C701B8010E94BE0601C095
:1007E0008FEF6896E6E00C944E28A8E1B0E0EBEFBE
:1007F000F3E00C94322869837A838B839C832D8366
:100800003E834F83588789E0E82EF12CEC0EFD1EC5
:10081000CE010196B7010E9446068E010F5E1F4F62
:10082000CE010596B8010E9446068985823040F0C7
:100830008989823028F0C701B8010E94BE0601C034
:100840008FEF6896E6E00C944E28A8E1B0E0EBE26A
:10085000F4E00C94322869837A838B839C832D8304
:100860003E834F83588789E0E82EF12CEC0EFD1E65
:10087000CE010196B7010E9446068E010F5E1F4F02
:10088000CE010596B8010E9446068985823040F067
:100890008989823028F0C701B8010E94BE0601C0D4
:1008A00081E06896E6E00C944E28ACE0B0E0EBE521
:1008B000F4E00C94362869837A838B839C83CE0181
:1008C0000196BE016B5F7F4F0E9446068D8182308C
:1008D00061F1823050F1843021F48E81882351F10E
:1008E0002EC02F81388537FD20C06E812F31310514
:1008F0001CF06623F9F023C08EE190E0821B930B7D
:1009000029853A854B855C8504C056954795379572
:1009100027958A95D2F76623B1F05095409530958A
:1009200021953F4F4F4F5F4F0EC020E030E040E039
:1009300050E009C02FEF3FEF4FEF5FE704C020E02A
:1009400030E040E050E8B901CA012C96E2E00C9496
:100950005228A8E0B0E0EFEAF4E00C942E287B01E6
:100960008C01611571058105910519F482E0898377
:1009700060C083E089838EE1C82ED12CDC82CB82DB
:10098000ED82FE820F831887C801B7010E942205FD
:10099000FC013197F7FF3BC0222733272E1B3F0B6B
:1009A00057016801022E04C0D694C794B794A79447
:1009B0000A94D2F740E050E060E070E081E090E01F
:1009C000A0E0B0E004C0880F991FAA1FBB1F2A95A2
:1009D000D2F70197A109B1098E219F21A023B1234C
:1009E0000097A105B10521F041E050E060E070E022
:1009F0004A295B296C297D294D835E836F83788723
:100A00008EE190E08E1B9F0B9C838B8312C03097EE
:100A100081F00E2E04C0EE0CFF1C001F111F0A9463
:100A2000D2F7ED82FE820F831887CE1ADF0ADC82AE
:100A3000CB821A82CE0101960E9471052896EAE0C7
:100A40000C944A28EF92FF920F931F937B018C0125
:100A500080E0E81680E0F80681E0080780E01807EB
:100A600088F48FEFE816F1040105110531F028F044
:100A700088E090E0A0E0B0E017C080E090E0A0E067
:100A8000B0E012C080E0E81680E0F80680E00807D9
:100A900081E0180728F088E190E0A0E0B0E004C011
:100AA00080E190E0A0E0B0E020E230E040E050E003
:100AB000281B390B4A0B5B0B04C016950795F7945E
:100AC000E7948A95D2F7F701EA50FF4F8081281BFF
:100AD000310941095109C9011F910F91FF90EF9010
:100AE0000895DF92EF92FF920F931F93FC01E48031
:100AF000F58006811781D1808081823048F480E0C2
:100B000090E0A0E1B0E0E82AF92A0A2B1B2BA5C04F
:100B1000843009F49FC0823021F4EE24FF24870141
:100B200005C0E114F1040105110519F4E0E0F0E05D
:100B300096C0628173819FEF623879070CF05BC0C9
:100B400022E83FEF261B370B2A3131052CF020E03D
:100B500030E040E050E02AC0B801A701022E04C0F6
:100B600076956795579547950A94D2F781E090E07E
:100B7000A0E0B0E004C0880F991FAA1FBB1F2A95F0
:100B8000D2F70197A109B1098E219F21A023B1239A
:100B90000097A105B10521F081E090E0A0E0B0E070
:100BA0009A01AB01282B392B4A2B5B2BDA01C901A7
:100BB0008F779070A070B07080349105A105B10559
:100BC00039F427FF09C0205C3F4F4F4F5F4F04C0EF
:100BD000215C3F4F4F4F5F4FE0E0F0E02030A0E05E
:100BE0003A07A0E04A07A0E45A0710F0E1E0F0E07D
:100BF00079018A0127C06038710564F5FB01E1586D
:100C0000FF4FD801C7018F779070A070B07080340B
:100C10009105A105B10539F4E7FE0DC080E490E02F
:100C2000A0E0B0E004C08FE390E0A0E0B0E0E80E08
:100C3000F91E0A1F1B1F17FF05C016950795F7948D
:100C4000E794319687E016950795F794E7948A958F
:100C5000D1F705C0EE24FF248701EFEFF0E06E2FFF
:100C6000679566276795902F9F77D794DD24D79453
:100C70008E2F8695492F462B582F5D29B701CA0123
:100C80001F910F91FF90EF90DF900895FC01DB0121
:100C9000408151812281622F6F7770E0221F2227CD
:100CA000221F9381892F880F822B282F30E0991FD4
:100CB0009927991F11969C93119721153105A9F534
:100CC000411551056105710511F482E037C082E8D4
:100CD0009FEF13969C938E9312979A01AB0167E056
:100CE000220F331F441F551F6A95D1F783E08C9361
:100CF0000DC0220F331F441F551F12968D919C91DA
:100D00001397019713969C938E931297203080E04F
:100D1000380780E0480780E4580758F314962D936D
:100D20003D934D935C93179708952F3F310579F4C8
:100D3000411551056105710519F484E08C930895FE
:100D400064FF03C081E08C9312C01C9210C02F5727
:100D5000304013963C932E93129783E08C9387E058
:100D6000440F551F661F771F8A95D1F7706414963C
:100D70004D935D936D937C93179708951F93DC01BA
:100D8000FB019C91923008F447C08081823008F4C6
:100D900043C0943051F411961C91843099F58181AF
:100DA000682F70E0611B71093FC0843021F09230E0
:100DB00031F48230B9F18181882389F12DC01196F7
:100DC0001C9111978230F1F081811817D9F4129695
:100DD0002D913C911397828193818217930794F010
:100DE00028173907BCF014968D919D910D90BC91F8
:100DF000A02D2481358146815781281739074A075C
:100E00005B0718F4112341F00AC082179307A40767
:100E1000B50740F4112319F061E070E005C06FEFF1
:100E20007FEF02C060E070E0CB011F910895DF9377
:100E3000CF93CDB7DEB70E94EA1E80E090E0CF915D
:100E4000DF910895DF93CF93CDB7DEB7E1E4F0E013
:100E50008FE08083CF91DF910895DF93CF93CDB75B
:100E6000DEB7A1E4B0E0E1E4F0E0808188618C933A
:100E7000E1E4F0E01082CF91DF910895DF93CF930A
:100E8000CDB7DEB7E6E4F0E081E792E091838083BE
:100E9000AEE4B0E0EEE4F0E0808184608C93AEE4F8
:100EA000B0E0EEE4F0E080818D7F8C93AEE4B0E0C2
:100EB000EEE4F0E080818E7F8C93AFE4B0E0EFE46D
:100EC000F0E080818E7F8C93AFE4B0E0EFE4F0E05F
:100ED000808182608C93AEE4B0E0EEE4F0E080814B
:100EE00088608C93AEE4B0E0EEE4F0E08081806155
:100EF0008C93AFE4B0E0EFE4F0E080818F7B8C93E3
:100F0000AFE4B0E0EFE4F0E0808180688C93AFE480
:100F1000B0E0EFE4F0E080818F7E8C93AFE4B0E04E
:100F2000EFE4F0E0808180628C93CF91DF910895AF
:100F30000F931F93DF93CF9300D000D0CDB7DEB7D0
:100F400069837A838B839C8369817A818B819C817D
:100F500020E030E048EC52E40E941903DC01CB01B0
:100F600089839A83AB83BC830AE410E0E6E4F0E073
:100F700080819181CC01A0E0B0E0BC01CD010E9454
:100F8000A904DC01CB01BC01CD0129813A814B814F
:100F90005C810E941F02DC01CB01BC01CD0120E07D
:100FA00030E040E85FE30E94C101DC01CB01BC01FD
:100FB000CD010E944900DC01CB01F80191838083BF
:100FC0000F900F900F900F90CF91DF911F910F9185
:100FD00008950F931F93DF93CF9300D000D0CDB728
:100FE000DEB769837A838B839C8369817A818B8165
:100FF0009C8120E030E048EC52E40E941903DC01BF
:10100000CB0189839A83AB83BC8308E410E0E6E4D8
:10101000F0E080819181CC01A0E0B0E0BC01CD0185
:101020000E94A904DC01CB01BC01CD0129813A81D8
:101030004B815C810E941F02DC01CB01BC01CD0110
:1010400020E030E040E85FE30E94C101DC01CB0119
:10105000BC01CD010E944900DC01CB01F801918364
:1010600080830F900F900F900F90CF91DF911F9181
:101070000F910895DF93CF930F92CDB7DEB7898399
:10108000A6E5B0E0E6E5F0E0808180648C93E0E2E4
:10109000F0E082E08083A1E2B0E0E1E2F0E0808174
:1010A0008E7F8C93A1E2B0E0E1E2F0E080818D7F61
:1010B0008C93E2E2F0E08981880F8083A6E5B0E0BE
:1010C000E6E5F0E0808184608C930F90CF91DF9112
:1010D0000895DF93CF930F92CDB7DEB78983E2E215
:1010E000F0E08981880F8083A6E5B0E0E6E5F0E0D6
:1010F000808180648C93A6E5B0E0E6E5F0E0808135
:1011000084608C930F90CF91DF910895DF93CF93FC
:101110000F92CDB7DEB71982A6E5B0E0E6E5F0E0C4
:10112000808180628C93A6E5B0E0E6E5F0E0808106
:1011300080688C93E6E5F0E080818823DCF7E1E2CB
:10114000F0E08081882F90E0887F90708830910552
:1011500011F081E0898389810F90CF91DF9108950B
:10116000DF93CF930F92CDB7DEB71982A6E5B0E03B
:10117000E6E5F0E0808180628C93A6E5B0E0E6E5EC
:10118000F0E0808180688C93E6E5F0E08081882340
:10119000DCF7E1E2F0E08081882F90E0887F9070BA
:1011A0008031910511F082E0898389810F90CF9180
:1011B000DF910895DF93CF9300D0CDB7DEB78A8358
:1011C0001982E3E2F0E08A81880F8083A3E2B0E035
:1011D000E3E2F0E080818E7F8C93A6E5B0E0E6E567
:1011E000F0E080818F7D8C93A6E5B0E0E6E5F0E04D
:1011F000808180688C93E6E5F0E080818823DCF7CD
:10120000E1E2F0E08081882F90E0887F9070883163
:10121000910511F083E0898389810F900F90CF9120
:10122000DF910895DF93CF9300D0CDB7DEB78A83E7
:101230001982E3E2F0E08A81880F8083A3E2B0E0C4
:10124000E3E2F0E0808181608C93A6E5B0E0E6E522
:10125000F0E080818F7D8C93A6E5B0E0E6E5F0E0DC
:10126000808180688C93E6E5F0E080818823DCF75C
:10127000E1E2F0E08081882F90E0887F90708034F8
:10128000910511F084E0898389810F900F90CF91AF
:10129000DF910895DF93CF9300D0CDB7DEB78A8377
:1012A0001982E3E2F0E08A818083A6E5B0E0E6E51A
:1012B000F0E0808180688C93E6E5F0E0808188230F
:1012C000DCF7E1E2F0E08081882F90E0887F907089
:1012D0008832910511F085E0898389810F900F9004
:1012E000CF91DF910895DF93CF9300D00F92CDB7C8
:1012F000DEB79B838A831982A6E5B0E0E6E5F0E0DD
:10130000808180688C93E6E5F0E080818823DCF7BB
:10131000E1E2F0E08081882F90E0887F9070803556
:10132000910519F086E0898306C0E3E2F0E0808150
:10133000EA81FB81808389810F900F900F90CF917C
:10134000DF910895DF93CF9300D00F92CDB7DEB732
:101350009B838A831982A6E5B0E0E6E5F0E0808110
:1013600080688C93E6E5F0E080818823DCF7E1E299
:10137000F0E08081882F90E0887F90708035910523
:1013800019F086E0898306C0E3E2F0E08081EA811B
:10139000FB81808389810F900F900F90CF91DF9117
:1013A0000895DF93CF93CDB7DEB7A6E5B0E0E6E5CD
:1013B000F0E0808180618C93A6E5B0E0E6E5F0E0A6
:1013C000808180688C93CF91DF910895DF93CF93D4
:1013D000CDB7DEB7AFE5B0E0EFE5F0E08081806843
:1013E0008C93CF91DF910895DF93CF93CDB7DEB784
:1013F000AFE5B0E0EFE5F0E080818F778C93CF919F
:10140000DF910895DF93CF93CDB7DEB7A5E5B0E0C8
:10141000E5E5F0E080818E7F8C93A5E5B0E0E5E521
:10142000F0E080818D7F8C93ABE5B0E0EBE5F0E000
:10143000808180648C93CF91DF910895DF93CF9367
:10144000CDB7DEB7A5E5B0E0E5E5F0E080818B7FC4
:101450008C93A5E5B0E0E5E5F0E08081877F8C9393
:10146000ABE5B0E0EBE5F0E0808180688C93CF9154
:10147000DF910895DF93CF93CDB7DEB7A5E5B0E058
:10148000E5E5F0E080818F7B8C93ABE5B0E0EBE5A8
:10149000F0E0808180628C93CF91DF910895DF939B
:1014A000CF93CDB7DEB7ACE3B0E0ECE3F0E0808102
:1014B000877F8C93CF91DF910895DF93CF9300D0F6
:1014C00000D0CDB7DEB769837A838B839C83ECE34E
:1014D000F0E080818695882F90E08170907088235D
:1014E000B1F7EEE3F0E089819A8191838083ACE3E8
:1014F000B0E0ECE3F0E0808181608C93EDE3F0E01C
:1015000080810F900F900F900F90CF91DF910895F1
:10151000DF93CF9300D000D00F92CDB7DEB76983B1
:101520007A838B839C834D83ECE3F0E08081869506
:10153000882F90E0817090708823B1F7EEE3F0E09F
:1015400089819A8191838083EDE3F0E08D818083AE
:10155000ACE3B0E0ECE3F0E0808184608C93ACE33A
:10156000B0E0ECE3F0E0808182608C930F900F900C
:101570000F900F900F90CF91DF910895DF93CF934D
:1015800000D000D00F92CDB7DEB789836A834B833A
:101590008981282F30E03D832C838C819D8181308F
:1015A000910509F447C02C813D81223031052CF48E
:1015B0008C819D81009771F0CBC02C813D812230C0
:1015C000310509F467C08C819D818330910509F450
:1015D00091C0BEC08B818130A1F4AAE3B0E0EAE300
:1015E000F0E08081482F8A81282F30E081E090E070
:1015F000022E02C0880F991F0A94E2F7842B8C9365
:10160000A7C08B81882309F0A3C0AAE3B0E0EAE376
:10161000F0E08081482F8A81282F30E081E090E03F
:10162000022E02C0880F991F0A94E2F78095842346
:101630008C938EC08B818130A1F4A7E3B0E0E7E307
:10164000F0E08081482F8A81282F30E081E090E00F
:10165000022E02C0880F991F0A94E2F7842B8C9304
:1016600077C08B81882309F073C0A7E3B0E0E7E37C
:10167000F0E08081482F8A81282F30E081E090E0DF
:10168000022E02C0880F991F0A94E2F780958423E6
:101690008C935EC08B818130A1F4A4E3B0E0E4E3DD
:1016A000F0E08081482F8A81282F30E081E090E0AF
:1016B000022E02C0880F991F0A94E2F7842B8C93A4
:1016C00047C08B81882309F043C0A4E3B0E0E4E382
:1016D000F0E08081482F8A81282F30E081E090E07F
:1016E000022E02C0880F991F0A94E2F78095842386
:1016F0008C932EC08B818130A1F4A1E3B0E0E1E3B3
:10170000F0E08081482F8A81282F30E081E090E04E
:10171000022E02C0880F991F0A94E2F7842B8C9343
:1017200017C08B818823A1F4A1E3B0E0E1E3F0E0EE
:101730008081482F8A81282F30E081E090E0022EBE
:1017400002C0880F991F0A94E2F7809584238C9336
:101750000F900F900F900F900F90CF91DF91089501
:10176000DF93CF9300D000D00F92CDB7DEB789833F
:101770006A834B838981282F30E03D832C838C81C1
:101780009D818130910509F447C02C813D81223033
:1017900031052CF48C819D81009771F0CBC02C8198
:1017A0003D812230310509F467C08C819D818330F1
:1017B000910509F491C0BEC08B818130A1F4ABE3E7
:1017C000B0E0EBE3F0E08081482F8A81282F30E001
:1017D00081E090E0022E02C0880F991F0A94E2F780
:1017E000842B8C93A7C08B81882309F0A3C0ABE323
:1017F000B0E0EBE3F0E08081482F8A81282F30E0D1
:1018000081E090E0022E02C0880F991F0A94E2F74F
:10181000809584238C938EC08B818130A1F4A8E3C2
:10182000B0E0E8E3F0E08081482F8A81282F30E0A3
:1018300081E090E0022E02C0880F991F0A94E2F71F
:10184000842B8C9377C08B81882309F073C0A8E325
:10185000B0E0E8E3F0E08081482F8A81282F30E073
:1018600081E090E0022E02C0880F991F0A94E2F7EF
:10187000809584238C935EC08B818130A1F4A5E395
:10188000B0E0E5E3F0E08081482F8A81282F30E046
:1018900081E090E0022E02C0880F991F0A94E2F7BF
:1018A000842B8C9347C08B81882309F043C0A5E328
:1018B000B0E0E5E3F0E08081482F8A81282F30E016
:1018C00081E090E0022E02C0880F991F0A94E2F78F
:1018D000809584238C932EC08B818130A1F4A2E368
:1018E000B0E0E2E3F0E08081482F8A81282F30E0E9
:1018F00081E090E0022E02C0880F991F0A94E2F75F
:10190000842B8C9317C08B818823A1F4A2E3B0E0D1
:10191000E2E3F0E08081482F8A81282F30E081E0E7
:1019200090E0022E02C0880F991F0A94E2F780957A
:1019300084238C930F900F900F900F900F90CF9166
:10194000DF910895DF93CF9300D000D000D0CDB7C2
:10195000DEB789836A838981282F30E03D832C8319
:101960004C815D814130510549F18C819D818230EE
:10197000910534F42C813D812115310561F057C06A
:101980004C815D814230510561F18C819D818330B4
:101990009105D1F14CC0E9E3F0E08081282F30E0DF
:1019A0008A81882F90E0A90102C0559547958A95B4
:1019B000E2F7CA01582F51705B833AC0E6E3F0E0CA
:1019C0008081282F30E08A81882F90E0A90102C011
:1019D000559547958A95E2F7CA01582F51705B8358
:1019E00027C0E3E3F0E08081282F30E08A81882F50
:1019F00090E0A90102C0559547958A95E2F7CA0182
:101A0000582F51705B8314C0E0E3F0E08081282FF1
:101A100030E08A81882F90E0A90102C05595479552
:101A20008A95E2F7CA01582F51705B8301C002C04A
:101A30008B818E838E8126960FB6F894DEBF0FBE03
:101A4000CDBFCF91DF910895DF93CF9300D000D029
:101A5000CDB7DEB789836A838981282F30E03C8344
:101A60002B838B819C818130910521F12B813C81DD
:101A7000223031052CF48B819C81009761F046C0A7
:101A80002B813C812230310521F18B819C81833077
:101A9000910571F13BC08A81813029F4EAE3F0E0DD
:101AA0008FEF808333C08A81882381F5EAE3F0E0F9
:101AB00010822CC08A81813029F4E7E3F0E08FEFB7
:101AC000808324C08A81882309F5E7E3F0E010824F
:101AD0001DC08A81813029F4E4E3F0E08FEF808338
:101AE00015C08A81882391F4E4E3F0E010820EC0EF
:101AF0008A81813029F4E1E3F0E08FEF808306C032
:101B00008A81882319F4E1E3F0E010820F900F90AE
:101B10000F900F90CF91DF910895DF93CF9300D076
:101B200000D0CDB7DEB789836A838981282F30E062
:101B30003C832B838B819C818130910521F12B810A
:101B40003C81223031052CF48B819C81009761F01F
:101B500046C02B813C812230310521F18B819C8153
:101B60008330910571F13BC08A81813029F4EBE328
:101B7000F0E08FEF808333C08A81882381F5EBE327
:101B8000F0E010822CC08A81813029F4E8E3F0E093
:101B90008FEF808324C08A81882309F5E8E3F0E091
:101BA00010821DC08A81813029F4E5E3F0E08FEFD7
:101BB000808315C08A81882391F4E5E3F0E01082E8
:101BC0000EC08A81813029F4E2E3F0E08FEF808358
:101BD00006C08A81882319F4E2E3F0E010820F90B6
:101BE0000F900F900F90CF91DF910895DF93CF93D7
:101BF00000D000D00F92CDB7DEB789838981282F1E
:101C000030E03C832B838B819C8181309105D1F026
:101C10002B813C81223031052CF48B819C810097F3
:101C200061F01FC02B813C812230310581F08B8116
:101C30009C818330910581F014C0EBE3F0E090814A
:101C40009A8310C0E8E3F0E020812A830BC0E5E32B
:101C5000F0E030813A8306C0E2E3F0E080818A83DD
:101C600001C002C09A819D838D810F900F900F90CB
:101C70000F900F90CF91DF910895DF93CF9300D015
:101C800000D00F92CDB7DEB789836A834B838981F9
:101C9000282F30E03D832C838C819D8181309105FC
:101CA00009F447C02C813D81223031052CF48C8110
:101CB0009D81009771F0CBC02C813D812230310590
:101CC00009F467C08C819D818330910509F491C02E
:101CD000BEC08B818130A1F4ABE3B0E0EBE3F0E078
:101CE0008081482F8A81282F30E081E090E0022E09
:101CF00002C0880F991F0A94E2F7842B8C93A7C027
:101D00008B81882309F0A3C0ABE3B0E0EBE3F0E004
:101D10008081482F8A81282F30E081E090E0022ED8
:101D200002C0880F991F0A94E2F7809584238C9350
:101D30008EC08B818130A1F4A8E3B0E0E8E3F0E04D
:101D40008081482F8A81282F30E081E090E0022EA8
:101D500002C0880F991F0A94E2F7842B8C9377C0F6
:101D60008B81882309F073C0A8E3B0E0E8E3F0E0DA
:101D70008081482F8A81282F30E081E090E0022E78
:101D800002C0880F991F0A94E2F7809584238C93F0
:101D90005EC08B818130A1F4A5E3B0E0E5E3F0E023
:101DA0008081482F8A81282F30E081E090E0022E48
:101DB00002C0880F991F0A94E2F7842B8C9347C0C6
:101DC0008B81882309F043C0A5E3B0E0E5E3F0E0B0
:101DD0008081482F8A81282F30E081E090E0022E18
:101DE00002C0880F991F0A94E2F7809584238C9390
:101DF0002EC08B818130A1F4A2E3B0E0E2E3F0E0F9
:101E00008081482F8A81282F30E081E090E0022EE7
:101E100002C0880F991F0A94E2F7842B8C9317C095
:101E20008B818823A1F4A2E3B0E0E2E3F0E08081BB
:101E3000482F8A81282F30E081E090E0022E02C0F6
:101E4000880F991F0A94E2F7809584238C930F9052
:101E50000F900F900F900F90CF91DF910895DF9327
:101E6000CF9300D000D0CDB7DEB789836A83898154
:101E7000282F30E03C832B838B819C81813091051E
:101E8000D1F02B813C81223031052CF48B819C8157
:101E9000009761F01EC02B813C812230310581F01A
:101EA0008B819C818330910581F013C0EAE3F0E0DF
:101EB0008A8180830EC0E7E3F0E08A81808309C0D5
:101EC000E4E3F0E08A81808304C0E1E3F0E08A810A
:101ED00080830F900F900F900F90CF91DF91089516
:101EE000DF93CF9300D000D0CDB7DEB789836A836C
:101EF0008981282F30E03C832B838B819C8181302A
:101F00009105D1F02B813C81223031052CF48B815D
:101F10009C81009761F01EC02B813C8122303105ED
:101F200081F08B819C818330910581F013C0EBE3BC
:101F3000F0E08A8180830EC0E8E3F0E08A8180834C
:101F400009C0E5E3F0E08A81808304C0E2E3F0E0C9
:101F50008A8180830F900F900F900F90CF91DF9127
:101F60000895DF93CF9300D000D0CDB7DEB789833B
:101F70006A838981282F30E03C832B838B819C816D
:101F80008130910549F12B813C81223031052CF4BF
:101F90008B819C81009761F05AC02B813C8122305B
:101FA000310571F18B819C8183309105E9F14FC03E
:101FB000ABE3B0E0EBE3F0E08081482F8A81282F8B
:101FC00030E081E090E0022E02C0880F991F0A9451
:101FD000E2F784278C933BC0A8E3B0E0E8E3F0E0AD
:101FE0008081482F8A81282F30E081E090E0022E06
:101FF00002C0880F991F0A94E2F784278C9327C0A8
:10200000A5E3B0E0E5E3F0E08081482F8A81282F46
:1020100030E081E090E0022E02C0880F991F0A9400
:10202000E2F784278C9313C0A2E3B0E0E2E3F0E090
:102030008081482F8A81282F30E081E090E0022EB5
:1020400002C0880F991F0A94E2F784278C930F909F
:102050000F900F900F90CF91DF910895DF93CF9362
:1020600000D0CDB7DEB789836A838981282F30E01D
:102070008A81882F90E0A90102C0559547958A95DD
:10208000E2F7CA0181700F900F90CF91DF91089510
:10209000DF93CF93CDB7DEB7A7E2B0E0E7E2F0E0A1
:1020A000808180648C93A7E2B0E0E7E2F0E0808179
:1020B0008F778C93A6E2B0E0E6E2F0E080818E7F3D
:1020C0008C93A6E2B0E0E6E2F0E0808182608C933F
:1020D000A6E2B0E0E6E2F0E0808184608C93A7E2C3
:1020E000B0E0E7E2F0E080818F7D8C93A6E2B0E083
:1020F000E6E2F0E0808180628C93A0E5B0E0E0E56C
:10210000F0E080818F7D8C93A0E5B0E0E0E5F0E029
:1021100080818F7B8C93A0E5B0E0E0E5F0E08081EA
:102120008F778C93A6E2B0E0E6E2F0E080818068F1
:102130008C93CF91DF910895DF93CF93CDB7DEB726
:10214000A6E2B0E0E6E2F0E0808180648C93CF917B
:10215000DF910895DF93CF930F92CDB7DEB78983D8
:10216000A7E2B0E0E7E2F0E08081807E8C93A7E216
:10217000B0E0E7E2F0E090818981892B8C930F90A9
:10218000CF91DF910895DF93CF93CDB7DEB7A6E26D
:10219000B0E0E6E2F0E0808188608C93CF91DF913F
:1021A0000895DF93CF93CDB7DEB7E6E2F0E080810C
:1021B00082958F70882F90E0817090700097A9F3BE
:1021C000A6E2B0E0E6E2F0E0808180618C93CF91FE
:1021D000DF910895DF93CF9300D0CDB7DEB79A8318
:1021E0008983E4E2F0E080819181E981FA81918341
:1021F00080830F900F90CF91DF910895DF93CF935D
:1022000000D000D0CDB7DEB79C838B838B819C81BF
:10221000CC01A0E0B0E0BA2FA92F982F88272FEF8C
:1022200033E040E050E0BC01CD010E940428DA0117
:10223000C9019A83898389819A819C013695279562
:102240008B819C818217930718F41A82198204C02B
:1022500081E090E09A83898389810F900F900F909D
:102260000F90CF91DF910895DF93CF930F92CDB769
:10227000DEB7898383E060E041E00E94BE0A83E02C
:1022800061E041E00E94BE0AE4E3F0E08FEF80836A
:102290008981823029F482E061E00E94240D07C028
:1022A0008981813021F482E060E00E94240D0F904A
:1022B000CF91DF910895DF93CF930F92CDB7DEB723
:1022C00089838981882F90E0FC01EA50FE4F90813C
:1022D00082E0692F0E94700F0F90CF91DF910895D7
:1022E000DF93CF930F92CDB7DEB789838981813099
:1022F00031F483E060E040E00E94B00B08C08981C7
:10230000823029F483E060E041E00E94B00B0F903E
:10231000CF91DF910895DF93CF930F92CDB7DEB7C2
:1023200089838981813031F483E061E040E00E945B
:10233000B00B08C08981823029F483E061E041E07C
:102340000E94B00B0F90CF91DF910895DF93CF9350
:102350000F92CDB7DEB789838981823031F483E073
:1023600060E041E00E94BE0A08C08981813029F402
:1023700083E060E040E00E94BE0A0F90CF91DF91C1
:102380000895DF93CF930F92CDB7DEB7898389810C
:10239000823031F483E061E041E00E94BE0A08C06F
:1023A0008981813029F483E061E040E00E94BE0A27
:1023B0000F90CF91DF910895DF93CF9300D00F92CC
:1023C000CDB7DEB78B838AE08A83198203C0898107
:1023D0008F5F898399818A819817C8F30F900F9036
:1023E0000F90CF91DF910895DF93CF93CDB7DEB7F4
:1023F0006F970FB6F894DEBF0FBECDBF8F8F8F8D56
:102400009AE0692F0E94F827892F8E8F83E061E080
:1024100040E00E94B00B83E060E041E00E94B00B1E
:102420008E8D882F90E0FC01EA50FE4F908182E073
:10243000692F0E94700F80E090E0A8E4B2E4898FD9
:102440009A8FAB8FBC8F698D7A8D8B8D9C8D20E0A0
:1024500030E04AEF54E40E941F02DC01CB018D8B77
:102460009E8BAF8BB88F6D897E898F89988D20E088
:1024700030E040E85FE30E94250488232CF481E0EB
:1024800090E09C8B8B8B3FC06D897E898F89988D66
:1024900020E03FEF4FE757E40E94C50318164CF5C4
:1024A000698D7A8D8B8D9C8D20E030E040E251E487
:1024B0000E941F02DC01CB01BC01CD010E9449003A
:1024C000DC01CB019C8B8B8B0FC088EC90E09A8B4E
:1024D000898B89899A890197F1F79A8B898B8B89E6
:1024E0009C8901979C8B8B8B8B899C89009769F7C2
:1024F00014C06D897E898F89988D0E944900DC0106
:10250000CB019C8B8B8B8B899C89988B8F878F853C
:1025100098890197F1F7988B8F878F8D9AE0692FB3
:102520000E94F8278D8F83E060E040E00E94B00BAE
:1025300083E061E041E00E94B00B8D8D882F90E038
:10254000FC01EA50FE4F908182E0692F0E94700FDB
:1025500080E090E0A8E4B2E48B879C87AD87BE87DB
:102560006B857C858D859E8520E030E04AEF54E4C4
:102570000E941F02DC01CB018F839887A987BA874D
:102580006F81788589859A8520E030E040E85FE3B7
:102590000E94250488232CF481E090E09E838D83A3
:1025A0003FC06F81788589859A8520E03FEF4FE7AE
:1025B00057E40E94C50318164CF56B857C858D8504
:1025C0009E8520E030E040E251E40E941F02DC01E1
:1025D000CB01BC01CD010E944900DC01CB019E83EF
:1025E0008D830FC088EC90E09C838B838B819C81D2
:1025F0000197F1F79C838B838D819E8101979E8348
:102600008D838D819E81009769F714C06F817885D5
:1026100089859A850E944900DC01CB019E838D83C8
:102620008D819E819A83898389819A810197F1F7AF
:102630009A8389836F960FB6F894DEBF0FBECDBF25
:10264000CF91DF910895DF93CF930F92CDB7DEB78F
:10265000898383E060E041E00E94BE0A898188238B
:1026600009F041C083E060E041E00E94BE0A82E0E0
:1026700063E041E00E94BE0A82E064E041E00E9423
:10268000BE0A82E065E041E00E94BE0A82E066E0A8
:1026900041E00E94BE0A82E067E041E00E94BE0A7B
:1026A00083E060E041E00E94B00B82E063E041E043
:1026B0000E94B00B82E064E041E00E94B00B82E037
:1026C00062E041E00E94B00B82E065E041E00E94E0
:1026D000B00B82E066E041E00E94B00B82E067E070
:1026E00041E00E94B00B8981813071F582E063E0A6
:1026F00041E00E94BE0A82E064E041E00E94BE0A1E
:1027000082E063E040E00E94B00B82E064E040E0E1
:102710000E94B00B83E060E041E00E94B00B82E0D9
:1027200062E041E00E94B00B82E065E041E00E947F
:10273000B00B82E066E041E00E94B00B82E067E00F
:1027400041E00E94B00B85C08981823009F042C00F
:1027500082E062E041E00E94BE0A82E063E041E084
:102760000E94BE0A82E065E041E00E94BE0A82E06B
:1027700066E041E00E94BE0A82E067E041E00E941C
:10278000BE0A83E060E041E00E94BE0A82E062E0AF
:1027900040E00E94B00B82E063E040E00E94B00B9A
:1027A00082E064E041E00E94B00B82E065E040E03E
:1027B0000E94B00B82E066E041E00E94B00B82E034
:1027C00067E040E00E94B00B83E060E040E00E94E0
:1027D000B00B3FC089818330E1F582E062E041E0E7
:1027E0000E94BE0A82E063E041E00E94BE0A82E0ED
:1027F00064E041E00E94BE0A82E065E041E00E94A0
:10280000BE0A82E067E041E00E94BE0A82E062E028
:1028100040E00E94B00B82E063E040E00E94B00B19
:1028200082E064E040E00E94B00B82E065E040E0BE
:102830000E94B00B83E060E041E00E94B00B82E0B8
:1028400066E041E00E94B00B82E067E040E00E9459
:10285000B00B0F90CF91DF910895DF93CF93CDB759
:10286000DEB7A1E3B0E0E1E3F0E0808180628C9329
:10287000CF91DF910895DF93CF930F92CDB7DEB75D
:1028800089838981882339F460E070E080E490E4F2
:102890000E94980713C089818A3539F460E070E09E
:1028A00080EF90E40E94980709C08981843B31F44D
:1028B00060E070E088E491E40E9498070F90CF9167
:1028C000DF910895DF93CF93CDB7DEB780E062E06C
:1028D00041E00E94BE0A80E063E041E00E94BE0A3F
:1028E000CF91DF910895DF93CF930F92CDB7DEB7ED
:1028F000898380E0698141E00E94B00B0F90CF9105
:10290000DF910895DF93CF930F92CDB7DEB7898320
:1029100080E0698140E00E94B00B0F90CF91DF9181
:102920000895DF93CF930F92CDB7DEB7898380E010
:1029300069810E94B10F0F90CF91DF910895DF93CD
:10294000CF93CDB7DEB76D970FB6F894DEBF0FBE4D
:10295000CDBF8D8F80E06D8D41E00E94B00B80E097
:1029600090E0AAEFB3E4898F9A8FAB8FBC8F698D0B
:102970007A8D8B8D9C8D20E030E04AEF54E40E94EC
:102980001F02DC01CB018D8B9E8BAF8BB88F6D89C5
:102990007E898F89988D20E030E040E85FE30E94D7
:1029A000250488232CF481E090E09C8B8B8B3FC026
:1029B0006D897E898F89988D20E03FEF4FE757E43E
:1029C0000E94C50318164CF5698D7A8D8B8D9C8DF0
:1029D00020E030E040E251E40E941F02DC01CB0124
:1029E000BC01CD010E944900DC01CB019C8B8B8B8B
:1029F0000FC088EC90E09A8B898B89899A8901971E
:102A0000F1F79A8B898B8B899C8901979C8B8B8B97
:102A10008B899C89009769F714C06D897E898F899D
:102A2000988D0E944900DC01CB019C8B8B8B8B899C
:102A30009C89988B8F878F8598890197F1F7988B60
:102A40008F8780E06D8D40E00E94B00B80E090E0C9
:102A5000AAEFB3E48B879C87AD87BE876B857C85A7
:102A60008D859E8520E030E04AEF54E40E941F02ED
:102A7000DC01CB018F839887A987BA876F8178851E
:102A800089859A8520E030E040E85FE30E942504D4
:102A900088232CF481E090E09E838D833FC06F817A
:102AA000788589859A8520E03FEF4FE757E40E94BB
:102AB000C50318164CF56B857C858D859E8520E0B9
:102AC00030E040E251E40E941F02DC01CB01BC0176
:102AD000CD010E944900DC01CB019E838D830FC094
:102AE00088EC90E09C838B838B819C810197F1F72C
:102AF0009C838B838D819E8101979E838D838D81A5
:102B00009E81009769F714C06F81788589859A85C1
:102B10000E944900DC01CB019E838D838D819E81C3
:102B20009A83898389819A810197F1F79A838983AE
:102B30006D960FB6F894DEBF0FBECDBFCF91DF917B
:102B40000895DF93CF9300D000D0CDB7DEB79C833C
:102B50008B838B819C8121E08534920718F41A8243
:102B6000198215C08B819C8121E08634920758F030
:102B70008B819C8122E08A38920728F481E090E0E2
:102B80009A83898304C082E090E09A838983898153
:102B90009A810F900F900F900F90CF91DF91089531
:102BA000DF93CF93CDB7DEB72E970FB6F894DEBF85
:102BB0000FBECDBF80E060EF0E942F0F83E06AE17F
:102BC0000E942F0F83E00E94971682E00E949716C2
:102BD00088E00E94971688E20E94971681E00E9482
:102BE00097168CE00E94971680E090E0A0EAB1E48E
:102BF0008B879C87AD87BE876B857C858D859E8501
:102C000020E030E04AEF54E40E941F02DC01CB01D7
:102C10008F839887A987BA876F81788589859A85F8
:102C200020E030E040E85FE30E94250488232CF494
:102C300081E090E09E838D833FC06F817885898598
:102C40009A8520E03FEF4FE757E40E94C50318162E
:102C50004CF56B857C858D859E8520E030E040E2DB
:102C600051E40E941F02DC01CB01BC01CD010E9496
:102C70004900DC01CB019E838D830FC088EC90E07E
:102C80009C838B838B819C810197F1F79C838B8341
:102C90008D819E8101979E838D838D819E8100977A
:102CA00069F714C06F81788589859A850E944900EB
:102CB000DC01CB019E838D838D819E819A838983E4
:102CC00089819A810197F1F79A8389832E960FB6AD
:102CD000F894DEBF0FBECDBFCF91DF910895DF9393
:102CE000CF9300D000D0CDB7DEB789836A838981C6
:102CF000282F30E03C832B838B819C818130910590
:102D000031F02B813C812230310531F009C08A81BC
:102D100080580E94971604C08A8180540E9497169A
:102D20000F900F900F900F90CF91DF910895DF9348
:102D3000CF93CDB7DEB76D970FB6F894DEBF0FBE59
:102D4000CDBF8D8FA2E3B0E0E2E3F0E080818D7F24
:102D50008C938D8D64E00E942E10882341F4ABE3A8
:102D6000B0E0EBE3F0E080818F7E8C9307C0ABE3B3
:102D7000B0E0EBE3F0E0808180618C938D8D65E0C5
:102D80000E942E10882341F4ABE3B0E0EBE3F0E0C7
:102D900080818F7D8C9307C0ABE3B0E0EBE3F0E084
:102DA000808180628C938D8D66E00E942E10882336
:102DB00041F4ABE3B0E0EBE3F0E080818F7B8C93F8
:102DC00007C0ABE3B0E0EBE3F0E0808180648C937C
:102DD0008D8D67E00E942E10882341F4ABE3B0E0B4
:102DE000EBE3F0E080818F778C9307C0ABE3B0E03A
:102DF000EBE3F0E0808180688C93A2E3B0E0E2E353
:102E0000F0E0808180618C9380E090E0A0E0B0E40D
:102E1000898F9A8FAB8FBC8F698D7A8D8B8D9C8DAE
:102E200020E030E04AEF54E40E941F02DC01CB01B5
:102E30008D8B9E8BAF8BB88F6D897E898F89988D96
:102E400020E030E040E85FE30E94250488232CF472
:102E500081E090E09C8B8B8B3FC06D897E898F8950
:102E6000988D20E03FEF4FE757E40E94C503181606
:102E70004CF5698D7A8D8B8D9C8D20E030E040E2A1
:102E800051E40E941F02DC01CB01BC01CD010E9474
:102E90004900DC01CB019C8B8B8B0FC088EC90E050
:102EA0009A8B898B89899A890197F1F79A8B898BFB
:102EB0008B899C8901979C8B8B8B8B899C89009734
:102EC00069F714C06D897E898F89988D0E944900A9
:102ED000DC01CB019C8B8B8B8B899C89988B8F879A
:102EE0008F8598890197F1F7988B8F87A2E3B0E0DF
:102EF000E2E3F0E080818F7E8C938D8D60E00E9414
:102F00002E10882341F4ABE3B0E0EBE3F0E08081E6
:102F10008F7E8C9307C0ABE3B0E0EBE3F0E0808101
:102F200080618C938D8D61E00E942E10882341F486
:102F3000ABE3B0E0EBE3F0E080818F7D8C9307C0E2
:102F4000ABE3B0E0EBE3F0E0808180628C938D8DA9
:102F500062E00E942E10882341F4ABE3B0E0EBE383
:102F6000F0E080818F7B8C9307C0ABE3B0E0EBE3B4
:102F7000F0E0808180648C938D8D63E00E942E1040
:102F8000882341F4ABE3B0E0EBE3F0E080818F779E
:102F90008C9307C0ABE3B0E0EBE3F0E080818068A6
:102FA0008C93A2E3B0E0E2E3F0E0808180618C9357
:102FB00080E090E0A0E0B0E48B879C87AD87BE877F
:102FC0006B857C858D859E8520E030E04AEF54E45A
:102FD0000E941F02DC01CB018F839887A987BA87E3
:102FE0006F81788589859A8520E030E040E85FE34D
:102FF0000E94250488232CF481E090E09E838D8339
:103000003FC06F81788589859A8520E03FEF4FE743
:1030100057E40E94C50318164CF56B857C858D8599
:103020009E8520E030E040E251E40E941F02DC0176
:10303000CB01BC01CD010E944900DC01CB019E8384
:103040008D830FC088EC90E09C838B838B819C8167
:103050000197F1F79C838B838D819E8101979E83DD
:103060008D838D819E81009769F714C06F8178856B
:1030700089859A850E944900DC01CB019E838D835E
:103080008D819E819A83898389819A810197F1F745
:103090009A838983A2E3B0E0E2E3F0E080818F7E4F
:1030A0008C936D960FB6F894DEBF0FBECDBFCF9157
:1030B000DF910895DF93CF93CDB7DEB76D970FB64D
:1030C000F894DEBF0FBECDBF8D8FA2E3B0E0E2E388
:1030D000F0E0808182608C938D8D64E00E942E10E0
:1030E000882341F4ABE3B0E0EBE3F0E080818F7E36
:1030F0008C9307C0ABE3B0E0EBE3F0E0808180614C
:103100008C938D8D65E00E942E10882341F4ABE3F3
:10311000B0E0EBE3F0E080818F7D8C9307C0ABE300
:10312000B0E0EBE3F0E0808180628C938D8D66E00F
:103130000E942E10882341F4ABE3B0E0EBE3F0E013
:1031400080818F7B8C9307C0ABE3B0E0EBE3F0E0D2
:10315000808180648C938D8D67E00E942E1088237F
:1031600041F4ABE3B0E0EBE3F0E080818F778C9348
:1031700007C0ABE3B0E0EBE3F0E0808180688C93C4
:10318000A2E3B0E0E2E3F0E0808180618C9380E034
:1031900090E0A0E0B0E4898F9A8FAB8FBC8F698DEF
:1031A0007A8D8B8D9C8D20E030E04AEF54E40E94B4
:1031B0001F02DC01CB018D8B9E8BAF8BB88F6D898D
:1031C0007E898F89988D20E030E040E85FE30E949F
:1031D000250488232CF481E090E09C8B8B8B3FC0EE
:1031E0006D897E898F89988D20E03FEF4FE757E406
:1031F0000E94C50318164CF5698D7A8D8B8D9C8DB8
:1032000020E030E040E251E40E941F02DC01CB01EB
:10321000BC01CD010E944900DC01CB019C8B8B8B52
:103220000FC088EC90E09A8B898B89899A890197E5
:10323000F1F79A8B898B8B899C8901979C8B8B8B5F
:103240008B899C89009769F714C06D897E898F8965
:10325000988D0E944900DC01CB019C8B8B8B8B8964
:103260009C89988B8F878F8598890197F1F7988B28
:103270008F87A2E3B0E0E2E3F0E080818F7E8C9361
:103280008D8D60E00E942E10882341F4ABE3B0E006
:10329000EBE3F0E080818F7E8C9307C0ABE3B0E07E
:1032A000EBE3F0E0808180618C938D8D61E00E9482
:1032B0002E10882341F4ABE3B0E0EBE3F0E0808133
:1032C0008F7D8C9307C0ABE3B0E0EBE3F0E080814F
:1032D00080628C938D8D62E00E942E10882341F4D1
:1032E000ABE3B0E0EBE3F0E080818F7B8C9307C031
:1032F000ABE3B0E0EBE3F0E0808180648C938D8DF4
:1033000063E00E942E10882341F4ABE3B0E0EBE3CE
:10331000F0E080818F778C9307C0ABE3B0E0EBE304
:10332000F0E0808180688C93A2E3B0E0E2E3F0E01B
:10333000808180618C9380E090E0A0E0B0E48B8796
:103340009C87AD87BE876B857C858D859E8520E0BB
:1033500030E04AEF54E40E941F02DC01CB018F836E
:103360009887A987BA876F81788589859A8520E0B3
:1033700030E040E85FE30E94250488232CF481E0DC
:1033800090E09E838D833FC06F81788589859A8583
:1033900020E03FEF4FE757E40E94C50318164CF5B5
:1033A0006B857C858D859E8520E030E040E251E490
:1033B0000E941F02DC01CB01BC01CD010E9449002B
:1033C000DC01CB019E838D830FC088EC90E09C8351
:1033D0008B838B819C810197F1F79C838B838D81FB
:1033E0009E8101979E838D838D819E81009769F7D1
:1033F00014C06F81788589859A850E944900DC0117
:10340000CB019E838D838D819E819A83898389815F
:103410009A810197F1F79A838983A2E3B0E0E2E30E
:10342000F0E080818F7E8C936D960FB6F894DEBFAE
:103430000FBECDBFCF91DF910895DF93CF9300D022
:103440000F92CDB7DEB79B838A8319820EC0898124
:10345000282F30E08A819B81FC01E20FF31F8081DD
:103460000E945A1889818F5F89838981282F30E0D3
:103470008A819B81FC01E20FF31F8081882339F749
:103480000F900F900F90CF91DF910895DF93CF931E
:10349000CDB7DEB781E00E949716CF91DF910895F6
:1034A000DF93CF93CDB7DEB7A0970FB6F894DEBF0A
:1034B0000FBECDBF8E8F78A36F8F8E8D882F90E03B
:1034C0000896880F991F880F991F880F991F0E94CF
:1034D00097161D8E80C08D8D282F30E08F8D98A17E
:1034E000FC01E20FF31F80810E945A1880E090E0F7
:1034F000A0E0B0E4898F9A8FAB8FBC8F698D7A8DF5
:103500008B8D9C8D20E030E04AEF54E40E941F0236
:10351000DC01CB018D8B9E8BAF8BB88F6D897E8943
:103520008F89988D20E030E040E85FE30E94250419
:1035300088232CF481E090E09C8B8B8B3FC06D89BD
:103540007E898F89988D20E03FEF4FE757E40E94F6
:10355000C50318164CF5698D7A8D8B8D9C8D20E0F6
:1035600030E040E251E40E941F02DC01CB01BC01CB
:10357000CD010E944900DC01CB019C8B8B8B0FC0DD
:1035800088EC90E09A8B898B89899A890197F1F769
:103590009A8B898B8B899C8901979C8B8B8B8B89D0
:1035A0009C89009769F714C06D897E898F89988DF1
:1035B0000E944900DC01CB019C8B8B8B8B899C8901
:1035C000988B8F878F8598890197F1F7988B8F87D4
:1035D0008D8D8F5F8D8F8D8D883008F47CCF80E04E
:1035E00090E0A0EAB1E48B879C87AD87BE876B85AE
:1035F0007C858D859E8520E030E04AEF54E40E9472
:103600001F02DC01CB018F839887A987BA876F815E
:10361000788589859A8520E030E040E85FE30E9464
:10362000250488232CF481E090E09E838D833FC0A5
:103630006F81788589859A8520E03FEF4FE757E4D1
:103640000E94C50318164CF56B857C858D859E857B
:1036500020E030E040E251E40E941F02DC01CB0197
:10366000BC01CD010E944900DC01CB019E838D830A
:103670000FC088EC90E09C838B838B819C810197A9
:10368000F1F79C838B838D819E8101979E838D832F
:103690008D819E81009769F714C06F817885898537
:1036A0009A850E944900DC01CB019E838D838D8128
:1036B0009E819A83898389819A810197F1F79A8300
:1036C0008983A0960FB6F894DEBF0FBECDBFCF9111
:1036D000DF9108950F931F93DF93CF93CDB7DEB79C
:1036E0002F970FB6F894DEBF0FBECDBF6C877D87D6
:1036F0008E879F878AE0FE013296DF01982F1D9208
:103700009A95E9F719828C859D85AE85BF850097CE
:10371000A105B10521F480E30E945A1851C0198215
:1037200030C08981082F112707FD10958C859D8554
:10373000AE85BF852AE030E040E050E0BC01CD011D
:103740000E940428DC01CB01805D282FCE01029667
:10375000FC01E00FF11F20838C859D85AE85BF8520
:103760002AE030E040E050E0BC01CD010E94042896
:10377000DA01C9018C879D87AE87BF8789818F5FFA
:1037800089838C859D85AE85BF850097A105B10590
:1037900041F689818150898310C08981282F332780
:1037A00027FD3095CE010296FC01E20FF31F8081C8
:1037B0000E945A18898181508983898188236CF7F6
:1037C0002F960FB6F894DEBF0FBECDBFCF91DF911D
:1037D0001F910F910895DF93CF93CDB7DEB7619717
:1037E0000FB6F894DEBF0FBECDBF6E877F87888B84
:1037F000998B1A828E8589838E859F85A889B98940
:103800000097A105B10599F58E85805D0E945A1833
:103810004CC08E859F85A889B9892AE030E040E0B8
:1038200050E0BC01CD010E940428DC01CB018B8358
:103830008A81282F30E0CE010496FC01E20FF31FAD
:103840008B8180838E859F85A889B9892AE030E0A5
:1038500040E050E0BC01CD010E940428DA01C9011A
:103860008E879F87A88BB98B8A818F5F8A838E858D
:103870009F85A889B9890097A105B10551F68A816C
:1038800081508A838A81282F30E0CE010496FC0182
:10389000E20FF31F8081805D0E945A188A8188237D
:1038A00021F08A8181508A83EDCF898161960FB69C
:1038B000F894DEBF0FBECDBFCF91DF910895DF93A7
:1038C000CF9300D000D0CDB7DEB789838981282F70
:1038D00030E03C832B838B819C818830910509F4F7
:1038E00070C02B813C81293031055CF58B819C8136
:1038F0008430910509F459C02B813C812530310574
:103900009CF48B819C818230910509F448C02B8105
:103910003C81233031050CF045C08B819C81813086
:10392000910509F439C067C02B813C8126303105EF
:1039300009F441C08B819C81873091050CF03EC019
:1039400037C02B813C812C30310509F446C08B8176
:103950009C818D3091055CF42B813C812A303105AE
:10396000B1F18B819C818B309105A4F52DC02B8109
:103970003C812E303105B9F18B819C818E309105CF
:103980007CF12B813C812F30310579F18B819C8139
:103990008031910569F12FC097E09A832EC028E00D
:1039A0002A832BC039E03A8328C08FE28A8325C05E
:1039B00094E09A8322C025E02A831FC036E03A8330
:1039C0001CC08AE28A8319C091E09A8316C022E063
:1039D0002A8313C033E03A8310C08DE28A830DC07E
:1039E00093E49A830AC01A8208C02DE32A8305C093
:1039F0003BE23A8302C085E28A838A810F900F906E
:103A00000F900F90CF91DF910895DF93CF93CDB7B3
:103A1000DEB760970FB6F894DEBF0FBECDBF1F862E
:103A2000BAC08F85282F30E080E190E002C0880F77
:103A3000991F2A95E2F7982F81E0692F0E942F0F96
:103A40008F85282F30E080E190E002C0880F991F19
:103A50002A95E2F7982F909581E0692F0E94700FC8
:103A6000188A92C081E068890E94A20C882309F01C
:103A700088C080E090E0A0EFB1E48B879C87AD87A1
:103A8000BE876B857C858D859E8520E030E04AEF82
:103A900054E40E941F02DC01CB018F839887A98721
:103AA000BA876F81788589859A8520E030E040E883
:103AB0005FE30E94250488232CF481E090E09E833C
:103AC0008D833FC06F81788589859A8520E03FEF9F
:103AD0004FE757E40E94C50318164CF56B857C85AB
:103AE0008D859E8520E030E040E251E40E941F0277
:103AF000DC01CB01BC01CD010E944900DC01CB01FE
:103B00009E838D830FC088EC90E09C838B838B8198
:103B10009C810197F1F79C838B838D819E81019716
:103B20009E838D838D819E81009769F714C06F817C
:103B3000788589859A850E944900DC01CB019E83A6
:103B40008D838D819E819A83898389819A81019752
:103B5000F1F79A8389838889882F90E0880F991FCD
:103B6000880F991F982F8F85890F8F5F0E945F1C88
:103B700060960FB6F894DEBF0FBECDBFCF91DF9138
:103B8000089588898F5F888B8889843008F46ACF8C
:103B90008F858F5F8F878F85843008F442CF3FCF2A
:103BA000DF93CF93CDB7DEB763970FB6F894DEBF40
:103BB0000FBECDBF998B888B6A8B88899989892F95
:103BC000992780658F870E9486088F850E94DA0872
:103BD00088890E944A098A890E944A090E94D1095B
:103BE00080E090E0A0E2B1E48B879C87AD87BE8740
:103BF0006B857C858D859E8520E030E04AEF54E41E
:103C00000E941F02DC01CB018F839887A987BA87A6
:103C10006F81788589859A8520E030E040E85FE310
:103C20000E94250488232CF481E090E09E838D83FC
:103C30003FC06F81788589859A8520E03FEF4FE707
:103C400057E40E94C50318164CF56B857C858D855D
:103C50009E8520E030E040E251E40E941F02DC013A
:103C6000CB01BC01CD010E944900DC01CB019E8348
:103C70008D830FC088EC90E09C838B838B819C812B
:103C80000197F1F79C838B838D819E8101979E83A1
:103C90008D838D819E81009769F714C06F8178852F
:103CA00089859A850E944900DC01CB019E838D8322
:103CB0008D819E819A83898389819A810197F1F709
:103CC0009A83898363960FB6F894DEBF0FBECDBF8B
:103CD000CF91DF910895DF93CF9300D000D000D033
:103CE000CDB7DEB79B838A837D836C838A819B817A
:103CF000892F9927806589830E94860889810E947F
:103D0000DA088A810E944A090E94B00889810E94CB
:103D100012098C819D810E9473090E94D109269607
:103D20000FB6F894DEBF0FBECDBFCF91DF910895DF
:103D3000DF93CF93CDB7DEB7A1E3B0E0E1E3F0E0EE
:103D4000808180648C93CF91DF910895DF93CF932E
:103D50000F92CDB7DEB789838981882331F483E060
:103D600066E041E00E94B00B08C08981813029F4EF
:103D700083E066E040E00E94B00B0F90CF91DF91AE
:103D80000895DF93CF93CDB7DEB7A1E3B0E0E1E3D1
:103D9000F0E0808180688C93CF91DF910895DF936C
:103DA000CF930F92CDB7DEB789838981882331F411
:103DB00083E067E041E00E94B00B08C08981813058
:103DC00029F483E067E040E00E94B00B0F90CF91B0
:103DD000DF910895DF93CF93CDB7DEB760970FB62D
:103DE000F894DEBF0FBECDBF0E94D0150E946214B2
:103DF0000E9448100E94981E0E94C11E0E94E6095F
:103E00000E94020A0E942D1480E80E9497166AE020
:103E100070E080E090E00E94EB1B81E00E94AA101D
:103E20000E949C1082E092E00E94EA1080910202BF
:103E300090910302969587959093030280930202D6
:103E400080E090E0A8ECB2E48B879C87AD87BE87CA
:103E50006B857C858D859E8520E030E04AEF54E4BB
:103E60000E941F02DC01CB018F839887A987BA8744
:103E70006F81788589859A8520E030E040E85FE3AE
:103E80000E94250488232CF481E090E09E838D839A
:103E90003FC06F81788589859A8520E03FEF4FE7A5
:103EA00057E40E94C50318164CF56B857C858D85FB
:103EB0009E8520E030E040E251E40E941F02DC01D8
:103EC000CB01BC01CD010E944900DC01CB019E83E6
:103ED0008D830FC088EC90E09C838B838B819C81C9
:103EE0000197F1F79C838B838D819E8101979E833F
:103EF0008D838D819E81009769F714C06F817885CD
:103F000089859A850E944900DC01CB019E838D83BF
:103F10008D819E819A83898389819A810197F1F7A6
:103F20009A83898380E80E94971680E690E00E9439
:103F30001D1A80EC0E9497168EE690E00E941D1AD2
:103F40008091020290910302CC01A0E0B0E0BC019C
:103F5000CD010E94EB1B80910202909103020E940E
:103F6000AB245BCF1F920F920FB60F9211242F93A9
:103F70003F934F935F936F937F938F939F93AF93F1
:103F8000BF93EF93FF93DF93CF93CDB7DEB72E9719
:103F9000DEBFCDBF0E94461A0E945B200E94461AD7
:103FA00081E00E94CF1E80E090E0A8E4B3E48B871C
:103FB0009C87AD87BE876B857C858D859E8520E03F
:103FC00030E04AEF54E40E941F02DC01CB018F83F2
:103FD0009887A987BA876F81788589859A8520E037
:103FE00030E040E85FE30E94250488232CF481E060
:103FF00090E09E838D833FC06F81788589859A8507
:1040000020E03FEF4FE757E40E94C50318164CF538
:104010006B857C858D859E8520E030E040E251E413
:104020000E941F02DC01CB01BC01CD010E944900AE
:10403000DC01CB019E838D830FC088EC90E09C83D4
:104040008B838B819C810197F1F79C838B838D817E
:104050009E8101979E838D838D819E81009769F754
:1040600014C06F81788589859A850E944900DC019A
:10407000CB019E838D838D819E819A8389838981E3
:104080009A810197F1F79A8389832E96DEBFCDBF7F
:10409000CF91DF91FF91EF91BF91AF919F918F9160
:1040A0007F916F915F914F913F912F910F900FBE34
:1040B0000F901F901895DF93CF93CDB7DEB7EA9797
:1040C0000FB6F894DEBF0FBECDBF0E94D0150E9480
:1040D00062140E94981E0E942D140E94C11E80E04E
:1040E0000E94231318AA80E80E9497168CE790E09C
:1040F0000E941D1A80EC0E9497160E94051D882FB1
:1041000090E09AAB89AB80E090E0AAE7B3E48FA39C
:1041100098A7A9A7BAA76FA178A589A59AA520E015
:1041200030E04AEF54E40E941F02DC01CB018BA374
:104130009CA3ADA3BEA36BA17CA18DA19EA120E0F9
:1041400030E040E85FE30E94250488232CF481E0FE
:1041500090E09AA389A33FC06BA17CA18DA19EA1F1
:1041600020E03FEF4FE757E40E94C50318164CF5D7
:104170006FA178A589A59AA520E030E040E251E43E
:104180000E941F02DC01CB01BC01CD010E9449004D
:10419000DC01CB019AA389A30FC088EC90E098A31F
:1041A0008F8F8F8D98A10197F1F798A38F8F89A199
:1041B0009AA101979AA389A389A19AA1009769F767
:1041C00014C06BA17CA18DA19EA10E944900DC01BD
:1041D000CB019AA389A389A19AA19E8F8D8F8D8DE2
:1041E0009E8D0197F1F79E8F8D8F8CE890E00E9455
:1041F0001D1A89A99AA98D33910509F09EC20E94C2
:10420000461A80E80E9497168EE890E00E941D1AD8
:1042100080EC0E9497161BA69EC00E94051D882F49
:1042200090E09AAB89AB80E090E0AAE7B3E4898F95
:104230009A8FAB8FBC8F698D7A8D8B8D9C8D20E092
:1042400030E04AEF54E40E941F02DC01CB018D8B69
:104250009E8BAF8BB88F6D897E898F89988D20E07A
:1042600030E040E85FE30E94250488232CF481E0DD
:1042700090E09C8B8B8B3FC06D897E898F89988D58
:1042800020E03FEF4FE757E40E94C50318164CF5B6
:10429000698D7A8D8B8D9C8D20E030E040E251E479
:1042A0000E941F02DC01CB01BC01CD010E9449002C
:1042B000DC01CB019C8B8B8B0FC088EC90E09A8B40
:1042C000898B89899A890197F1F79A8B898B8B89D8
:1042D0009C8901979C8B8B8B8B899C89009769F7B4
:1042E00014C06D897E898F89988D0E944900DC01F8
:1042F000CB019C8B8B8B8B899C89988B8F878F852F
:1043000098890197F1F7988B8F878CE890E00E944D
:104310001D1A89A99AA98A30910598F48BA99CA99C
:104320009C01220F331FC901880F991F880F991F05
:10433000280F391F89A99AA9820F931F9CAB8BABB9
:1043400007C080E80E9497168FE990E00E941D1A2E
:104350008BA58F5F8BA78BA5843008F45ECF80E0A0
:1043600090E0AAE7B4E48B879C87AD87BE876B8516
:104370007C858D859E8520E030E04AEF54E40E94E4
:104380001F02DC01CB018F839887A987BA876F81D1
:10439000788589859A8520E030E040E85FE30E94D7
:1043A000250488232CF481E090E09E838D833FC018
:1043B0006F81788589859A8520E03FEF4FE757E444
:1043C0000E94C50318164CF56B857C858D859E85EE
:1043D00020E030E040E251E40E941F02DC01CB010A
:1043E000BC01CD010E944900DC01CB019E838D837D
:1043F0000FC088EC90E09C838B838B819C8101971C
:10440000F1F79C838B838D819E8101979E838D83A1
:104410008D819E81009769F714C06F8178858985A9
:104420009A850E944900DC01CB019E838D838D819A
:104430009E819A83898389819A810197F1F79A8372
:1044400089830E94461A80E80E9497168BA99CA92E
:10445000CC01A0E0B0E0BC01CD010E94EB1B8BA918
:104460009CA9CC01A0E0B0E0BC01CD010E94A90450
:10447000DC01CB018CA79DA7AEA7BFA76CA57DA52E
:104480008EA59FA520E030E04AEF55E40E94C503C9
:1044900018169CF46CA57DA58EA59FA520E030E0A4
:1044A00040E252E40E941903DC01CB018CA79DA7D6
:1044B000AEA7BFA781E088ABDBC01AAE6CA57DA517
:1044C0008EA59FA520E030E44CE955E40E94C50389
:1044D000181614F421E02AAF81E09AAD89278823C9
:1044E00039F519AE6CA57DA58EA59FA520E030E01D
:1044F0004AEF55E40E942504882314F421E029AFF3
:1045000081E099AD8927882399F46CA57DA58EA5B6
:104510009FA520E030E040E152E40E941903DC0155
:10452000CB018CA79DA7AEA7BFA782E088ABA0C098
:1045300018AE6CA57DA58EA59FA520E030E44CE9C2
:1045400055E40E94C503181614F421E028AF81E059
:1045500098AD8927882339F51FAA6CA57DA58EA55E
:104560009FA520E030E04AEF55E40E94250488230F
:1045700014F421E02FAB81E09FA98927882399F4C7
:104580006CA57DA58EA59FA520E030E040E052E41B
:104590000E941903DC01CB018CA79DA7AEA7BFA782
:1045A00083E088AB65C01EAA6CA57DA58EA59FA5DE
:1045B00020E030E04AEF54E40E94C503181614F4DA
:1045C00021E02EAB81E09EA98927882339F51DAA19
:1045D0006CA57DA58EA59FA520E030E44CE955E4AF
:1045E0000E942504882314F421E02DAB81E09DA9CD
:1045F0008927882399F46CA57DA58EA59FA520E029
:1046000030E040EA51E40E941903DC01CB018CA7A1
:104610009DA7AEA7BFA784E088AB2AC06CA57DA5E7
:104620008EA59FA520E030EC49E754E40E94C50325
:104630001816F4F46CA57DA58EA59FA520E030E0AA
:104640004AEF54E40E942504882394F46CA57DA5C8
:104650008EA59FA520E030E040E251E40E941903BE
:10466000DC01CB018CA79DA7AEA7BFA785E088ABD7
:1046700088A9813089F46CA57DA58EA59FA520E031
:1046800030E040E252E40E941F02DC01CB018CA723
:104690009DA7AEA7BFA7A4C088A9823089F46CA546
:1046A0007DA58EA59FA520E030E040E152E40E9468
:1046B0001F02DC01CB018CA79DA7AEA7BFA790C0AE
:1046C00088A9833089F46CA57DA58EA59FA520E0DF
:1046D00030E040E052E40E941F02DC01CB018CA7D5
:1046E0009DA7AEA7BFA77CC088A9843089F46CA51C
:1046F0007DA58EA59FA520E030E040EA51E40E9410
:104700001F02DC01CB018CA79DA7AEA7BFA768C085
:1047100088A9853009F064C06CA57DA58EA59FA5EC
:1047200020E030E040E251E40E941F02DC01CB01B6
:104730008CA79DA7AEA7BFA753C089A99AA98A3005
:10474000910508F0CFCC89A99AA98B32910509F47B
:10475000C9CC89A99AA98A32910509F4C3CC89A93F
:104760009AA98D32910509F4BDCC89A99AA98E32F6
:10477000910509F4B7CC89A99AA98334910509F464
:10478000B1CC89A99AA98D33910509F4ABCC81EC00
:104790000E94971689A99AA99CAB8BABCE01C396B0
:1047A0009E012F5C3F4FB9010E9433278BA99CA922
:1047B00027E28F30920729F40E940625882381F092
:1047C00008C08BA99CA927E28F30920711F00E94A4
:1047D0008D26809101020E94F923009709F082CC76
:1047E000EA960FB6F894DEBF0FBECDBFCF91DF9132
:1047F0000895DF93CF93CDB7DEB760970FB6F894E7
:10480000DEBF0FBECDBF888B80910102882329F0C7
:1048100080910102833009F092C0809101028330BF
:1048200009F08DC080E00E94CF1E80E00E9423131B
:104830000E94461A80E80E94971680EC0E94971604
:1048400083EB90E00E941D1A80E00E94CF1E80E062
:1048500090E0AAE7B4E48B879C87AD87BE876B8521
:104860007C858D859E8520E030E04AEF54E40E94EF
:104870001F02DC01CB018F839887A987BA876F81DC
:10488000788589859A8520E030E040E85FE30E94E2
:10489000250488232CF481E090E09E838D833FC023
:1048A0006F81788589859A8520E03FEF4FE757E44F
:1048B0000E94C50318164CF56B857C858D859E85F9
:1048C00020E030E040E251E40E941F02DC01CB0115
:1048D000BC01CD010E944900DC01CB019E838D8388
:1048E0000FC088EC90E09C838B838B819C81019727
:1048F000F1F79C838B838D819E8101979E838D83AD
:104900008D819E81009769F714C06F8178858985B4
:104910009A850E944900DC01CB019E838D838D81A5
:104920009E819A83898389819A810197F1F79A837D
:1049300089830E94461A81E00E94CF1E1F868F85C0
:10494000882F90E060960FB6F894DEBF0FBECDBF03
:10495000CF91DF910895DF93CF9300D0CDB7DEB72D
:104960009A83898389819A818432910530F080E02D
:104970000E94A61E81E00E94CF1E89819A818E32FC
:10498000910530F080E00E94A61E80E00E94CF1EBC
:1049900089819A818332910530F481E00E94A61EBC
:1049A00081E00E94CF1E0F900F90CF91DF9108956C
:1049B000DF93CF9300D0CDB7DEB79A838983898107
:1049C0009A81009739F482E00E94821483E00E9469
:1049D000821417C089819A818130910539F482E06F
:1049E0000E94731483E00E9482140BC089819A8113
:1049F0008230910531F482E00E94731483E00E94BA
:104A000073140F900F90CF91DF910895DF93CF93A0
:104A1000CDB7DEB7AA970FB6F894DEBF0FBECDBFF5
:104A200080E00E943B1480E090E0AAEFB3E48FA303
:104A300098A7A9A7BAA76FA178A589A59AA520E0EC
:104A400030E04AEF54E40E941F02DC01CB018BA34B
:104A50009CA3ADA3BEA36BA17CA18DA19EA120E0D0
:104A600030E040E85FE30E94250488232CF481E0D5
:104A700090E09AA389A33FC06BA17CA18DA19EA1C8
:104A800020E03FEF4FE757E40E94C50318164CF5AE
:104A90006FA178A589A59AA520E030E040E251E415
:104AA0000E941F02DC01CB01BC01CD010E94490024
:104AB000DC01CB019AA389A30FC088EC90E098A3F6
:104AC0008F8F8F8D98A10197F1F798A38F8F89A170
:104AD0009AA101979AA389A389A19AA1009769F73E
:104AE00014C06BA17CA18DA19EA10E944900DC0194
:104AF000CB019AA389A389A19AA19E8F8D8F8D8DB9
:104B00009E8D0197F1F79E8F8D8F8AE50E943B1451
:104B100080E090E0AAEFB3E4898F9A8FAB8FBC8FCF
:104B2000698D7A8D8B8D9C8D20E030E04AEF54E4C6
:104B30000E941F02DC01CB018D8B9E8BAF8BB88F47
:104B40006D897E898F89988D20E030E040E85FE3B1
:104B50000E94250488232CF481E090E09C8B8B8BB1
:104B60003FC06D897E898F89988D20E03FEF4FE7A8
:104B700057E40E94C50318164CF5698D7A8D8B8D0C
:104B80009C8D20E030E040E251E40E941F02DC01F5
:104B9000CB01BC01CD010E944900DC01CB019C8B03
:104BA0008B8B0FC088EC90E09A8B898B89899A89CE
:104BB0000197F1F79A8B898B8B899C8901979C8B44
:104BC0008B8B8B899C89009769F714C06D897E89CE
:104BD0008F89988D0E944900DC01CB019C8B8B8BC7
:104BE0008B899C89988B8F878F8598890197F1F79E
:104BF000988B8F8780E00E943B14109201020E94E4
:104C0000461A80E80E94971685EC90E00E941D1AD3
:104C100080E090E0AAEFB3E48B879C87AD87BE87E6
:104C20006B857C858D859E8520E030E04AEF54E4DD
:104C30000E941F02DC01CB018F839887A987BA8766
:104C40006F81788589859A8520E030E040E85FE3D0
:104C50000E94250488232CF481E090E09E838D83BC
:104C60003FC06F81788589859A8520E03FEF4FE7C7
:104C700057E40E94C50318164CF56B857C858D851D
:104C80009E8520E030E040E251E40E941F02DC01FA
:104C9000CB01BC01CD010E944900DC01CB019E8308
:104CA0008D830FC088EC90E09C838B838B819C81EB
:104CB0000197F1F79C838B838D819E8101979E8361
:104CC0008D838D819E81009769F714C06F817885EF
:104CD00089859A850E944900DC01CB019E838D83E2
:104CE0008D819E819A83898389819A810197F1F7C9
:104CF0009A83898380EC0E94971685EC90E00E944D
:104D00001D1A0E94461A80E0AA960FB6F894DEBFDC
:104D10000FBECDBFCF91DF910895DF93CF93CDB775
:104D2000DEB72E970FB6F894DEBF0FBECDBF8091D1
:104D300001028F5F80930102809101020E94231380
:104D400080E80E94971687ED90E00E941D1A80EC83
:104D50000E94971683EE90E00E941D1A80E090E07A
:104D6000AFE2B4E48B879C87AD87BE876B857C857B
:104D70008D859E8520E030E04AEF54E40E941F02BA
:104D8000DC01CB018F839887A987BA876F817885EB
:104D900089859A8520E030E040E85FE30E942504A1
:104DA00088232CF481E090E09E838D833FC06F8147
:104DB000788589859A8520E03FEF4FE757E40E9488
:104DC000C50318164CF56B857C858D859E8520E086
:104DD00030E040E251E40E941F02DC01CB01BC0143
:104DE000CD010E944900DC01CB019E838D830FC061
:104DF00088EC90E09C838B838B819C810197F1F7F9
:104E00009C838B838D819E8101979E838D838D8171
:104E10009E81009769F714C06F81788589859A858E
:104E20000E944900DC01CB019E838D838D819E8190
:104E30009A83898389819A810197F1F79A8389837B
:104E40000E94461A80E80E9497168CE790E00E9424
:104E50001D1A80E02E960FB6F894DEBF0FBECDBFB0
:104E6000CF91DF910895DF93CF93CDB7DEB76397EE
:104E70000FB6F894DEBF0FBECDBF998B888B7B8BAE
:104E80006A8B1F86A8C00E94051D882F90E0EA89C2
:104E9000FB899183808380E090E0AAE7B3E48B876D
:104EA0009C87AD87BE876B857C858D859E8520E040
:104EB00030E04AEF54E40E941F02DC01CB018F83F3
:104EC0009887A987BA876F81788589859A8520E038
:104ED00030E040E85FE30E94250488232CF481E061
:104EE00090E09E838D833FC06F81788589859A8508
:104EF00020E03FEF4FE757E40E94C50318164CF53A
:104F00006B857C858D859E8520E030E040E251E414
:104F10000E941F02DC01CB01BC01CD010E944900AF
:104F2000DC01CB019E838D830FC088EC90E09C83D5
:104F30008B838B819C810197F1F79C838B838D817F
:104F40009E8101979E838D838D819E81009769F755
:104F500014C06F81788589859A850E944900DC019B
:104F6000CB019E838D838D819E819A8389838981E4
:104F70009A810197F1F79A8389838CE890E00E94E7
:104F80001D1AEA89FB89808191818A309105C8F4D4
:104F9000E889F989808191819C01220F331FC90121
:104FA000880F991F880F991F280F391FEA89FB89DD
:104FB00080819181820F931FE889F9899183808391
:104FC00007C080E80E9497168FE990E00E941D1AA2
:104FD0008F858F5F8F878F85833008F454CF6396DA
:104FE0000FB6F894DEBF0FBECDBFCF91DF9108950D
:104FF000991B79E004C0991F961708F0961B881F2B
:105000007A95C9F780950895A1E21A2EAA1BBB1BB9
:10501000FD010DC0AA1FBB1FEE1FFF1FA217B30784
:10502000E407F50720F0A21BB30BE40BF50B661F9A
:10503000771F881F991F1A9469F76095709580955E
:1050400090959B01AC01BD01CF0108952F923F9235
:105050004F925F926F927F928F929F92AF92BF9288
:10506000CF92DF92EF92FF920F931F93CF93DF9334
:10507000CDB7DEB7CA1BDB0B0FB6F894DEBF0FBE91
:10508000CDBF09942A88398848885F846E847D84DE
:105090008C849B84AA84B984C884DF80EE80FD80E0
:1050A0000C811B81AA81B981CE0FD11D0FB6F89456
:0E50B000DEBF0FBECDBFED010895F894FFCF17
:1050BE004272696768746E657373203D2000546593
:1050CE006D70726563686172203D2000456E746577
:1050DE007220796F75722050415353002A00534548
:1050EE0054205041535320342044494749540059C9
:1050FE006F757220496E7075742049732057726FE8
:10510E006E6700545259204C415445522E2E2E2E6D
:10511E002E2E2E20005269676874207061737320E2
:10512E002E2E2E2E2E2E0057726F6E67205041534C
:10513E0053200054525920414741494E200000004F
:10514E000000000000000001020203030303040438
:10515E0004040404040405050505050505050505F7
:10516E0005050505050506060606060606060606D7
:10517E0006060606060606060606060606060606C1
:10518E0006060606060607070707070707070707A7
:10519E000707070707070707070707070707070791
:1051AE000707070707070707070707070707070781
:1051BE000707070707070707070707070707070771
:1051CE000707070707070808080808080808080857
:1051DE000808080808080808080808080808080841
:1051EE000808080808080808080808080808080831
:1051FE000808080808080808080808080808080821
:10520E000808080808080808080808080808080810
:10521E000808080808080808080808080808080800
:10522E0008080808080808080808080808080808F0
:10523E0008080808080808080808080808080808E0
:10524E000808080808080000000000000000000020
:00000001FF
