:100000000C942A000C94461F0C9447000C94470053
:100010000C9447000C9447000C94CE070C944700B6
:100020000C9447000C9447000C9447000C94470034
:100030000C9447000C9447000C9447000C94470024
:100040000C9447000C9447000C9447000C94470014
:100050000C94470011241FBECFE5D8E0DEBFCDBF12
:1000600011E0A0E6B0E0E2E4F2E502C005900D92F6
:10007000AE3FB107D9F712E0AEEFB1E001C01D927B
:10008000A330B107E1F70E9417070C941F290C94C5
:100090000000EF92FF920F931F937B018C0120E0F1
:1000A00030E040E05FE40E94F50388238CF0C80153
:1000B000B70120E030E040E05FE40E94C1010E940F
:1000C00055049B01AC01205030404040504806C0D0
:1000D000C801B7010E9455049B01AC01B901CA01D6
:1000E0001F910F91FF90EF900895A0E0B0E0EBE733
:1000F000F0E00C94E828DC012B01FA019C9192308D
:1001000008F439C1EB018881823008F433C194309E
:1001100069F4843009F02FC111969C91119789815F
:10012000981709F428C1ACEEB0E025C1843009F479
:1001300021C18230A9F4923009F01DC19A01AD01AC
:1001400088E0EA010990AE01E90109929E0181501F
:10015000C1F7E201898111969C918923818308C1AD
:10016000923009F407C112962D903C901397EB0141
:100170008A819B811496AD90BD90CD90DC901797AD
:10018000EC80FD800E811F819101281B390BB90184
:1001900037FF04C066277727621B730B6032710537
:1001A0000CF061C0121613066CF537014801062EDB
:1001B00004C096948794779467940A94D2F721E0C8
:1001C00030E040E050E004C0220F331F441F551FB1
:1001D0006A95D2F721503040404050402E213F21B7
:1001E00040235123211531054105510521F021E01E
:1001F00030E040E050E079018A01E628F72808293C
:1002000019293CC0232BD1F1260E371E350146019A
:10021000062E04C096948794779467940A94D2F734
:1002200021E030E040E050E004C0220F331F441FC3
:10023000551F6A95D2F721503040404050402A2146
:100240003B214C215D21211531054105510521F04E
:1002500021E030E040E050E059016A01A628B728CB
:10026000C828D9280BC0821593052CF01C01AA249C
:10027000BB24650103C0EE24FF24870111969C91E5
:10028000D20111968C91981709F445C0992339F041
:10029000A80197012A193B094C095D0906C0A6016E
:1002A00095012E193F09400B510B57FD08C01182D3
:1002B0003382228224833583468357831DC081E0A5
:1002C00081833382228288279927DC01821B930B4A
:1002D000A40BB50B84839583A683B7830DC0220F2F
:1002E000331F441F551F24833583468357838281E0
:1002F000938101979383828324813581468157813D
:10030000DA01C9010197A109B1098F5F9F4FAF4F72
:10031000BF4328F30BC0918333822282EA0CFB1C7B
:100320000C1D1D1DE482F5820683178383E0808304
:10033000248135814681578157FF1AC0C901AA27F8
:1003400097FDA095BA2F81709070A070B0705695EF
:10035000479537952795822B932BA42BB52B848318
:100360009583A683B7838281938101969383828349
:10037000DF0101C0D201CD01CDB7DEB7E2E10C94BF
:100380000429A0E2B0E0E7ECF1E00C94F4286983E2
:100390007A838B839C832D833E834F835887E9E048
:1003A000EE2EF12CEC0EFD1ECE010196B7010E943F
:1003B00046068E010F5E1F4FCE010596B8010E94C2
:1003C00046068A8991E089278A8BC701B801AE0168
:1003D000475E5F4F0E9475000E947105A096E6E09F
:1003E0000C941029A0E2B0E0E8EFF1E00C94F428BE
:1003F00069837A838B839C832D833E834F835887C5
:10040000F9E0EF2EF12CEC0EFD1ECE010196B701A6
:100410000E9446068E010F5E1F4FCE010596B80161
:100420000E944606C701B801AE01475E5F4F0E94B9
:1004300075000E947105A096E6E00C941029A0E2D8
:10044000B0E0E5E2F2E00C94E82869837A838B83DC
:100450009C832D833E834F835887CE010196BE0136
:10046000675F7F4F0E944606CE010596BE016F5E14
:100470007F4F0E9446069985923088F089898230A4
:10048000C8F0943019F4823051F404C0843029F457
:10049000923081F48CEE90E0C6C0923049F420E0B6
:1004A0009A858A89981321E02A87CE010996BBC0D4
:1004B000823049F420E09A858A89981321E02A8BBA
:1004C000CE014196B0C02D843E844F8458886D88FB
:1004D0007E888F88988CEE24FF248701AA24BB2471
:1004E000650140E050E060E070E0E0E0F0E0C10174
:1004F00081709070892BE9F0E60CF71C081D191D1E
:100500009A01AB012A0D3B1D4C1D5D1D80E090E062
:10051000A0E0B0E0E614F7040805190520F481E036
:1005200090E0A0E0B0E0BA01A901480F591F6A1F8E
:100530007B1FAA0CBB1CCC1CDD1C97FE08C081E0F5
:1005400090E0A0E0B0E0A82AB92ACA2ADB2A3196B6
:10055000E032F10549F0660C771C881C991C569412
:10056000479437942794C3CFFA85EA892B893C892D
:100570008B859C85280F391F2E5F3F4F17C0CA01FE
:1005800081709070892B61F016950795F794E79428
:1005900080E090E0A0E0B0E8E82AF92A0A2B1B2BC3
:1005A00076956795579547952F5F3F4F77FDE7CF36
:1005B0000CC0440F551F661F771F17FD4160EE0CDE
:1005C000FF1C001F111F21503040403090E05907A0
:1005D00090E0690790E4790760F32B8F3C8FDB0193
:1005E000CA018F779070A070B07080349105A1051A
:1005F000B10561F447FD0AC0E114F10401051105DC
:1006000029F0405C5F4F6F4F7F4F40781A8EFE1786
:1006100011F081E08A8F4D8F5E8F6F8F78A383E01A
:10062000898FCE0149960E947105A096E2E10C9453
:100630000429A8E1B0E0EFE1F3E00C94F02869832D
:100640007A838B839C832D833E834F835887B9E0C5
:10065000EB2EF12CEC0EFD1ECE010196B7010E948F
:1006600046068E010F5E1F4FCE010596B8010E940F
:1006700046062985223008F47EC03989323010F4CC
:10068000B8017CC08A859A8989278A87243011F02D
:10069000223031F4231709F06EC06CEE70E06EC0AA
:1006A000343039F41D861E861F86188A1C861B86E8
:1006B00004C0323021F484E08987B7015FC02B8504
:1006C0003C858B899C89281B390B3C872B87ED84C3
:1006D000FE840F851889AD88BE88CF88D88CEA142F
:1006E000FB040C051D0540F4EE0CFF1C001F111F40
:1006F000215030403C872B8720E030E040E050E044
:1007000080E090E0A0E0B0E460E070E0EA14FB0478
:100710000C051D0540F0282B392B4A2B5B2BEA18C2
:10072000FB080C091D09B695A79597958795EE0CC2
:10073000FF1C001F111F6F5F7F4F6F31710531F775
:10074000DA01C9018F779070A070B0708034910584
:10075000A105B10561F427FD0AC0E114F10401050A
:10076000110529F0205C3F4F4F4F5F4F20782D87B8
:100770003E874F87588BBE01675F7F4FCB010E943A
:1007800071056896EAE00C940C29A8E1B0E0EBEC66
:10079000F3E00C94F42869837A838B839C832D8304
:1007A0003E834F83588789E0E82EF12CEC0EFD1E26
:1007B000CE010196B7010E9446068E010F5E1F4FC3
:1007C000CE010596B8010E9446068985823040F028
:1007D0008989823028F0C701B8010E94BE0601C095
:1007E0008FEF6896E6E00C941029A8E1B0E0EBEFFB
:1007F000F3E00C94F42869837A838B839C832D83A4
:100800003E834F83588789E0E82EF12CEC0EFD1EC5
:10081000CE010196B7010E9446068E010F5E1F4F62
:10082000CE010596B8010E9446068985823040F0C7
:100830008989823028F0C701B8010E94BE0601C034
:100840008FEF6896E6E00C941029A8E1B0E0EBE2A7
:10085000F4E00C94F42869837A838B839C832D8342
:100860003E834F83588789E0E82EF12CEC0EFD1E65
:10087000CE010196B7010E9446068E010F5E1F4F02
:10088000CE010596B8010E9446068985823040F067
:100890008989823028F0C701B8010E94BE0601C0D4
:1008A00081E06896E6E00C941029ACE0B0E0EBE55E
:1008B000F4E00C94F82869837A838B839C83CE01BF
:1008C0000196BE016B5F7F4F0E9446068D8182308C
:1008D00061F1823050F1843021F48E81882351F10E
:1008E0002EC02F81388537FD20C06E812F31310514
:1008F0001CF06623F9F023C08EE190E0821B930B7D
:1009000029853A854B855C8504C056954795379572
:1009100027958A95D2F76623B1F05095409530958A
:1009200021953F4F4F4F5F4F0EC020E030E040E039
:1009300050E009C02FEF3FEF4FEF5FE704C020E02A
:1009400030E040E050E8B901CA012C96E2E00C9496
:100950001429A8E0B0E0EFEAF4E00C94F0287B0161
:100960008C01611571058105910519F482E0898377
:1009700060C083E089838EE1C82ED12CDC82CB82DB
:10098000ED82FE820F831887C801B7010E942205FD
:10099000FC013197F7FF3BC0222733272E1B3F0B6B
:1009A00057016801022E04C0D694C794B794A79447
:1009B0000A94D2F740E050E060E070E081E090E01F
:1009C000A0E0B0E004C0880F991FAA1FBB1F2A95A2
:1009D000D2F70197A109B1098E219F21A023B1234C
:1009E0000097A105B10521F041E050E060E070E022
:1009F0004A295B296C297D294D835E836F83788723
:100A00008EE190E08E1B9F0B9C838B8312C03097EE
:100A100081F00E2E04C0EE0CFF1C001F111F0A9463
:100A2000D2F7ED82FE820F831887CE1ADF0ADC82AE
:100A3000CB821A82CE0101960E9471052896EAE0C7
:100A40000C940C29EF92FF920F931F937B018C0162
:100A500080E0E81680E0F80681E0080780E01807EB
:100A600088F48FEFE816F1040105110531F028F044
:100A700088E090E0A0E0B0E017C080E090E0A0E067
:100A8000B0E012C080E0E81680E0F80680E00807D9
:100A900081E0180728F088E190E0A0E0B0E004C011
:100AA00080E190E0A0E0B0E020E230E040E050E003
:100AB000281B390B4A0B5B0B04C016950795F7945E
:100AC000E7948A95D2F7F701EC50FF4F8081281BFD
:100AD000310941095109C9011F910F91FF90EF9010
:100AE0000895DF92EF92FF920F931F93FC01E48031
:100AF000F58006811781D1808081823048F480E0C2
:100B000090E0A0E1B0E0E82AF92A0A2B1B2BA5C04F
:100B1000843009F49FC0823021F4EE24FF24870141
:100B200005C0E114F1040105110519F4E0E0F0E05D
:100B300096C0628173819FEF623879070CF05BC0C9
:100B400022E83FEF261B370B2A3131052CF020E03D
:100B500030E040E050E02AC0B801A701022E04C0F6
:100B600076956795579547950A94D2F781E090E07E
:100B7000A0E0B0E004C0880F991FAA1FBB1F2A95F0
:100B8000D2F70197A109B1098E219F21A023B1239A
:100B90000097A105B10521F081E090E0A0E0B0E070
:100BA0009A01AB01282B392B4A2B5B2BDA01C901A7
:100BB0008F779070A070B07080349105A105B10559
:100BC00039F427FF09C0205C3F4F4F4F5F4F04C0EF
:100BD000215C3F4F4F4F5F4FE0E0F0E02030A0E05E
:100BE0003A07A0E04A07A0E45A0710F0E1E0F0E07D
:100BF00079018A0127C06038710564F5FB01E1586D
:100C0000FF4FD801C7018F779070A070B07080340B
:100C10009105A105B10539F4E7FE0DC080E490E02F
:100C2000A0E0B0E004C08FE390E0A0E0B0E0E80E08
:100C3000F91E0A1F1B1F17FF05C016950795F7948D
:100C4000E794319687E016950795F794E7948A958F
:100C5000D1F705C0EE24FF248701EFEFF0E06E2FFF
:100C6000679566276795902F9F77D794DD24D79453
:100C70008E2F8695492F462B582F5D29B701CA0123
:100C80001F910F91FF90EF90DF900895FC01DB0121
:100C9000408151812281622F6F7770E0221F2227CD
:100CA000221F9381892F880F822B282F30E0991FD4
:100CB0009927991F11969C93119721153105A9F534
:100CC000411551056105710511F482E037C082E8D4
:100CD0009FEF13969C938E9312979A01AB0167E056
:100CE000220F331F441F551F6A95D1F783E08C9361
:100CF0000DC0220F331F441F551F12968D919C91DA
:100D00001397019713969C938E931297203080E04F
:100D1000380780E0480780E4580758F314962D936D
:100D20003D934D935C93179708952F3F310579F4C8
:100D3000411551056105710519F484E08C930895FE
:100D400064FF03C081E08C9312C01C9210C02F5727
:100D5000304013963C932E93129783E08C9387E058
:100D6000440F551F661F771F8A95D1F7706414963C
:100D70004D935D936D937C93179708951F93DC01BA
:100D8000FB019C91923008F447C08081823008F4C6
:100D900043C0943051F411961C91843099F58181AF
:100DA000682F70E0611B71093FC0843021F09230E0
:100DB00031F48230B9F18181882389F12DC01196F7
:100DC0001C9111978230F1F081811817D9F4129695
:100DD0002D913C911397828193818217930794F010
:100DE00028173907BCF014968D919D910D90BC91F8
:100DF000A02D2481358146815781281739074A075C
:100E00005B0718F4112341F00AC082179307A40767
:100E1000B50740F4112319F061E070E005C06FEFF1
:100E20007FEF02C060E070E0CB011F910895DF9377
:100E3000CF93CDB7DEB70E94E11E80E090E0CF9166
:100E4000DF910895DF93CF93CDB7DEB7E1E4F0E013
:100E50008FE08083CF91DF910895DF93CF93CDB75B
:100E6000DEB7A1E4B0E0E1E4F0E0808188618C933A
:100E7000E1E4F0E01082CF91DF910895DF93CF930A
:100E8000CDB7DEB7AFE4B0E0EFE4F0E080818260A0
:100E90008C93AEE4B0E0EEE4F0E0808188608C9367
:100EA000AEE4B0E0EEE4F0E0808180618C93EBE4AE
:100EB000F0E082E08083EAE4F0E08EEE8083AEE44E
:100EC000B0E0EEE4F0E0808181608C93AEE4B0E0CD
:100ED000EEE4F0E0808182608C93AEE4B0E0EEE47A
:100EE000F0E0808180648C93A1E3B0E0E1E3F0E086
:100EF000808180628C93AFE4B0E0EFE4F0E0808129
:100F000080688C93CF91DF910895DF93CF9300D0C9
:100F1000CDB7DEB79A838983ECE4F0E089818083E2
:100F20000F900F90CF91DF910895DF93CF93CDB7BE
:100F3000DEB7ECE4F0E01082CF91DF910895DF930B
:100F4000CF9300D0CDB7DEB79A838983EBE4F0E08E
:100F500089819A81892F99278083EAE4F0E0898149
:100F600080830F900F90CF91DF910895DF93CF93FF
:100F700000D0CDB7DEB79A838983E7E4F0E08981BA
:100F80009A81892F990F990B8083E6E4F0E089819B
:100F900080830F900F90CF91DF9108951F920F9251
:100FA0000FB60F9211242F933F934F935F936F933C
:100FB0007F938F939F93AF93BF93EF93FF93DF93B1
:100FC000CF93CDB7DEB78091FE019091FF010097DE
:100FD00029F0E091FE01F091FF010995CF91DF9199
:100FE000FF91EF91BF91AF919F918F917F916F9101
:100FF0005F914F913F912F910F900FBE0F901F90D7
:101000001895DF93CF9300D0CDB7DEB79A8389834D
:1010100089819A819093FF018093FE010F900F9038
:10102000CF91DF910895DF93CF9300D0CDB7DEB796
:101030009A838983ECE4F0E011821082E6E4F0E028
:1010400083EC99E091838083EAE4F0E089819A81DE
:1010500091838083EFE4F0E082E88083EEE4F0E0C7
:101060008BE180830F900F90CF91DF910895DF93F4
:10107000CF930F92CDB7DEB78983A6E5B0E0E6E562
:10108000F0E0808180648C93E0E2F0E082E0808395
:10109000A1E2B0E0E1E2F0E080818E7F8C93A1E2FA
:1010A000B0E0E1E2F0E080818D7F8C93E2E2F0E05D
:1010B0008981880F8083A6E5B0E0E6E5F0E08081D5
:1010C00084608C930F90CF91DF910895DF93CF933D
:1010D0000F92CDB7DEB78983E2E2F0E08981880F15
:1010E0008083A6E5B0E0E6E5F0E0808180648C9343
:1010F000A6E5B0E0E6E5F0E0808184608C930F9097
:10110000CF91DF910895DF93CF930F92CDB7DEB7E4
:101110001982A6E5B0E0E6E5F0E0808180628C937C
:10112000A6E5B0E0E6E5F0E0808180688C93E6E536
:10113000F0E080818823DCF7E1E2F0E08081882F15
:1011400090E0887F90708830910511F081E089836C
:1011500089810F90CF91DF910895DF93CF930F9204
:10116000CDB7DEB71982A6E5B0E0E6E5F0E0808114
:1011700080628C93A6E5B0E0E6E5F0E080818068CF
:101180008C93E6E5F0E080818823DCF7E1E2F0E093
:101190008081882F90E0887F90708031910511F0D8
:1011A00082E0898389810F90CF91DF910895DF9349
:1011B000CF9300D0CDB7DEB78A831982E3E2F0E0A7
:1011C0008A81880F8083A3E2B0E0E3E2F0E08081CF
:1011D0008E7F8C93A6E5B0E0E6E5F0E080818F7D20
:1011E0008C93A6E5B0E0E6E5F0E0808180688C9322
:1011F000E6E5F0E080818823DCF7E1E2F0E0808141
:10120000882F90E0887F90708831910511F083E0FD
:10121000898389810F900F90CF91DF910895DF939B
:10122000CF9300D0CDB7DEB78A831982E3E2F0E036
:101230008A81880F8083A3E2B0E0E3E2F0E080815E
:1012400081608C93A6E5B0E0E6E5F0E080818F7DDB
:101250008C93A6E5B0E0E6E5F0E0808180688C93B1
:10126000E6E5F0E080818823DCF7E1E2F0E08081D0
:10127000882F90E0887F90708034910511F084E091
:10128000898389810F900F90CF91DF910895DF932B
:10129000CF9300D0CDB7DEB78A831982E3E2F0E0C6
:1012A0008A818083A6E5B0E0E6E5F0E08081806891
:1012B0008C93E6E5F0E080818823DCF7E1E2F0E062
:1012C0008081882F90E0887F90708832910511F09E
:1012D00085E0898389810F900F90CF91DF910895E8
:1012E000DF93CF9300D00F92CDB7DEB79B838A8375
:1012F0001982A6E5B0E0E6E5F0E0808180688C9395
:10130000E6E5F0E080818823DCF7E1E2F0E080812F
:10131000882F90E0887F90708035910519F086E0E5
:10132000898306C0E3E2F0E08081EA81FB8180836B
:1013300089810F900F900F90CF91DF910895DF93E7
:10134000CF9300D00F92CDB7DEB79B838A831982EB
:10135000A6E5B0E0E6E5F0E0808180688C93E6E504
:10136000F0E080818823DCF7E1E2F0E08081882FE3
:1013700090E0887F90708035910519F086E0898330
:1013800006C0E3E2F0E08081EA81FB81808389810D
:101390000F900F900F90CF91DF910895DF93CF932F
:1013A000CDB7DEB7A6E5B0E0E6E5F0E0808180618C
:1013B0008C93A6E5B0E0E6E5F0E0808180688C9350
:1013C000CF91DF910895DF93CF93CDB7DEB7AFE52F
:1013D000B0E0EFE5F0E0808180688C93CF91DF9101
:1013E0000895DF93CF93CDB7DEB7AFE5B0E0EFE57B
:1013F000F0E080818F778C93CF91DF910895DF9318
:10140000CF93CDB7DEB7A5E5B0E0E5E5F0E08081AC
:101410008E7F8C93A5E5B0E0E5E5F0E080818D7FDF
:101420008C93ABE5B0E0EBE5F0E0808180648C93D9
:10143000CF91DF910895DF93CF93CDB7DEB7A5E5C8
:10144000B0E0E5E5F0E080818B7F8C93A5E5B0E02E
:10145000E5E5F0E08081877F8C93ABE5B0E0EBE5DC
:10146000F0E0808180688C93CF91DF910895DF93C5
:10147000CF93CDB7DEB7A5E5B0E0E5E5F0E080813C
:101480008F7B8C93ABE5B0E0EBE5F0E08081806290
:101490008C93CF91DF910895DF93CF93CDB7DEB7D3
:1014A000ACE3B0E0ECE3F0E08081877F8C93CF91F8
:1014B000DF910895DF93CF9300D000D0CDB7DEB792
:1014C00069837A838B839C83ECE3F0E0808186954B
:1014D000882F90E0817090708823B1F7EEE3F0E000
:1014E00089819A8191838083ACE3B0E0ECE3F0E002
:1014F000808181608C93EDE3F0E080810F900F900C
:101500000F900F90CF91DF910895DF93CF9300D08C
:1015100000D00F92CDB7DEB769837A838B839C832B
:101520004D83ECE3F0E080818695882F90E0817018
:1015300090708823B1F7EEE3F0E089819A8191837E
:101540008083EDE3F0E08D818083ACE3B0E0ECE3F9
:10155000F0E0808184608C93ACE3B0E0ECE3F0E0F9
:10156000808182608C930F900F900F900F900F905E
:10157000CF91DF910895DF93CF9300D000D00F92E9
:10158000CDB7DEB789836A834B838981282F30E00A
:101590003D832C838C819D818130910509F447C066
:1015A0002C813D81223031052CF48C819D81009766
:1015B00071F0CBC02C813D812230310509F467C028
:1015C0008C819D818330910509F491C0BEC08B81CF
:1015D0008130A1F4AAE3B0E0EAE3F0E08081482F93
:1015E0008A81282F30E081E090E0022E02C0880F2F
:1015F000991F0A94E2F7842B8C93A7C08B818823D0
:1016000009F0A3C0AAE3B0E0EAE3F0E08081482F4C
:101610008A81282F30E081E090E0022E02C0880FFE
:10162000991F0A94E2F7809584238C938EC08B8156
:101630008130A1F4A7E3B0E0E7E3F0E08081482F38
:101640008A81282F30E081E090E0022E02C0880FCE
:10165000991F0A94E2F7842B8C9377C08B8188239F
:1016600009F073C0A7E3B0E0E7E3F0E08081482F22
:101670008A81282F30E081E090E0022E02C0880F9E
:10168000991F0A94E2F7809584238C935EC08B8126
:101690008130A1F4A4E3B0E0E4E3F0E08081482FDE
:1016A0008A81282F30E081E090E0022E02C0880F6E
:1016B000991F0A94E2F7842B8C9347C08B8188236F
:1016C00009F043C0A4E3B0E0E4E3F0E08081482FF8
:1016D0008A81282F30E081E090E0022E02C0880F3E
:1016E000991F0A94E2F7809584238C932EC08B81F6
:1016F0008130A1F4A1E3B0E0E1E3F0E08081482F84
:101700008A81282F30E081E090E0022E02C0880F0D
:10171000991F0A94E2F7842B8C9317C08B8188233E
:10172000A1F4A1E3B0E0E1E3F0E08081482F8A81F9
:10173000282F30E081E090E0022E02C0880F991F30
:101740000A94E2F7809584238C930F900F900F906A
:101750000F900F90CF91DF910895DF93CF9300D03A
:1017600000D00F92CDB7DEB789836A834B8389811E
:10177000282F30E03D832C838C819D818130910521
:1017800009F447C02C813D81223031052CF48C8135
:101790009D81009771F0CBC02C813D8122303105B5
:1017A00009F467C08C819D818330910509F491C053
:1017B000BEC08B818130A1F4ABE3B0E0EBE3F0E09D
:1017C0008081482F8A81282F30E081E090E0022E2E
:1017D00002C0880F991F0A94E2F7842B8C93A7C04C
:1017E0008B81882309F0A3C0ABE3B0E0EBE3F0E02A
:1017F0008081482F8A81282F30E081E090E0022EFE
:1018000002C0880F991F0A94E2F7809584238C9375
:101810008EC08B818130A1F4A8E3B0E0E8E3F0E072
:101820008081482F8A81282F30E081E090E0022ECD
:1018300002C0880F991F0A94E2F7842B8C9377C01B
:101840008B81882309F073C0A8E3B0E0E8E3F0E0FF
:101850008081482F8A81282F30E081E090E0022E9D
:1018600002C0880F991F0A94E2F7809584238C9315
:101870005EC08B818130A1F4A5E3B0E0E5E3F0E048
:101880008081482F8A81282F30E081E090E0022E6D
:1018900002C0880F991F0A94E2F7842B8C9347C0EB
:1018A0008B81882309F043C0A5E3B0E0E5E3F0E0D5
:1018B0008081482F8A81282F30E081E090E0022E3D
:1018C00002C0880F991F0A94E2F7809584238C93B5
:1018D0002EC08B818130A1F4A2E3B0E0E2E3F0E01E
:1018E0008081482F8A81282F30E081E090E0022E0D
:1018F00002C0880F991F0A94E2F7842B8C9317C0BB
:101900008B818823A1F4A2E3B0E0E2E3F0E08081E0
:10191000482F8A81282F30E081E090E0022E02C01B
:10192000880F991F0A94E2F7809584238C930F9077
:101930000F900F900F900F90CF91DF910895DF934C
:10194000CF9300D000D000D0CDB7DEB789836A83B3
:101950008981282F30E03D832C834C815D8141308B
:10196000510549F18C819D818230910534F42C819F
:101970003D812115310561F057C04C815D814230B8
:10198000510561F18C819D8183309105D1F14CC06D
:10199000E9E3F0E08081282F30E08A81882F90E011
:1019A000A90102C0559547958A95E2F7CA01582FBB
:1019B00051705B833AC0E6E3F0E08081282F30E08D
:1019C0008A81882F90E0A90102C0559547958A9594
:1019D000E2F7CA01582F51705B8327C0E3E3F0E0C0
:1019E0008081282F30E08A81882F90E0A90102C0F1
:1019F000559547958A95E2F7CA01582F51705B8338
:101A000014C0E0E3F0E08081282F30E08A81882F45
:101A100090E0A90102C0559547958A95E2F7CA0161
:101A2000582F51705B8301C002C08B818E838E81E1
:101A300026960FB6F894DEBF0FBECDBFCF91DF91D3
:101A40000895DF93CF9300D000D0CDB7DEB7898360
:101A50006A838981282F30E03C832B838B819C8192
:101A60008130910521F12B813C81223031052CF40C
:101A70008B819C81009761F046C02B813C81223094
:101A8000310521F18B819C818330910571F13BC03F
:101A90008A81813029F4EAE3F0E08FEF808333C05C
:101AA0008A81882381F5EAE3F0E010822CC08A81E4
:101AB000813029F4E7E3F0E08FEF808324C08A814E
:101AC000882309F5E7E3F0E010821DC08A818130A8
:101AD00029F4E4E3F0E08FEF808315C08A81882346
:101AE00091F4E4E3F0E010820EC08A81813029F4A1
:101AF000E1E3F0E08FEF808306C08A81882319F448
:101B0000E1E3F0E010820F900F900F900F90CF91D3
:101B1000DF910895DF93CF9300D000D0CDB7DEB72B
:101B200089836A838981282F30E03C832B838B81D2
:101B30009C818130910521F12B813C81223031053E
:101B40002CF48B819C81009761F046C02B813C81F5
:101B50002230310521F18B819C818330910571F117
:101B60003BC08A81813029F4EBE3F0E08FEF808382
:101B700033C08A81882381F5EBE3F0E010822CC02A
:101B80008A81813029F4E8E3F0E08FEF808324C07C
:101B90008A81882309F5E8E3F0E010821DC08A817C
:101BA000813029F4E5E3F0E08FEF808315C08A816E
:101BB000882391F4E5E3F0E010820EC08A81813041
:101BC00029F4E2E3F0E08FEF808306C08A81882366
:101BD00019F4E2E3F0E010820F900F900F900F9055
:101BE000CF91DF910895DF93CF9300D000D00F9273
:101BF000CDB7DEB789838981282F30E03C832B83E2
:101C00008B819C8181309105D1F02B813C812230E8
:101C100031052CF48B819C81009761F01FC02B81D2
:101C20003C812230310581F08B819C81833091058C
:101C300081F014C0EBE3F0E090819A8310C0E8E3F8
:101C4000F0E020812A830BC0E5E3F0E030813A83A5
:101C500006C0E2E3F0E080818A8301C002C09A817D
:101C60009D838D810F900F900F900F900F90CF91CB
:101C7000DF910895DF93CF9300D000D00F92CDB7BE
:101C8000DEB789836A834B838981282F30E03D83C7
:101C90002C838C819D818130910509F447C02C8172
:101CA0003D81223031052CF48C819D81009771F0AB
:101CB000CBC02C813D812230310509F467C08C8175
:101CC0009D818330910509F491C0BEC08B81813024
:101CD000A1F4ABE3B0E0EBE3F0E08081482F8A8130
:101CE000282F30E081E090E0022E02C0880F991F7B
:101CF0000A94E2F7842B8C93A7C08B81882309F088
:101D0000A3C0ABE3B0E0EBE3F0E08081482F8A8131
:101D1000282F30E081E090E0022E02C0880F991F4A
:101D20000A94E2F7809584238C938EC08B81813056
:101D3000A1F4A8E3B0E0E8E3F0E08081482F8A81D5
:101D4000282F30E081E090E0022E02C0880F991F1A
:101D50000A94E2F7842B8C9377C08B81882309F057
:101D600073C0A8E3B0E0E8E3F0E08081482F8A8107
:101D7000282F30E081E090E0022E02C0880F991FEA
:101D80000A94E2F7809584238C935EC08B81813026
:101D9000A1F4A5E3B0E0E5E3F0E08081482F8A817B
:101DA000282F30E081E090E0022E02C0880F991FBA
:101DB0000A94E2F7842B8C9347C08B81882309F027
:101DC00043C0A5E3B0E0E5E3F0E08081482F8A81DD
:101DD000282F30E081E090E0022E02C0880F991F8A
:101DE0000A94E2F7809584238C932EC08B818130F6
:101DF000A1F4A2E3B0E0E2E3F0E08081482F8A8121
:101E0000282F30E081E090E0022E02C0880F991F59
:101E10000A94E2F7842B8C9317C08B818823A1F45A
:101E2000A2E3B0E0E2E3F0E08081482F8A81282F2E
:101E300030E081E090E0022E02C0880F991F0A94E2
:101E4000E2F7809584238C930F900F900F900F9062
:101E50000F90CF91DF910895DF93CF9300D000D002
:101E6000CDB7DEB789836A838981282F30E03C8330
:101E70002B838B819C8181309105D1F02B813C811A
:101E8000223031052CF48B819C81009761F01EC0BB
:101E90002B813C812230310581F08B819C81833004
:101EA000910581F013C0EAE3F0E08A8180830EC0DF
:101EB000E7E3F0E08A81808309C0E4E3F0E08A810F
:101EC000808304C0E1E3F0E08A8180830F900F906B
:101ED0000F900F90CF91DF910895DF93CF9300D0B3
:101EE00000D0CDB7DEB789836A838981282F30E09F
:101EF0003C832B838B819C8181309105D1F02B8198
:101F00003C81223031052CF48B819C81009761F05B
:101F10001EC02B813C812230310581F08B819C8158
:101F20008330910581F013C0EBE3F0E08A81808378
:101F30000EC0E8E3F0E08A81808309C0E5E3F0E0C9
:101F40008A81808304C0E2E3F0E08A8180830F907D
:101F50000F900F900F90CF91DF910895DF93CF9363
:101F600000D000D0CDB7DEB789836A838981282F5E
:101F700030E03C832B838B819C818130910549F13A
:101F80002B813C81223031052CF48B819C81009780
:101F900061F05AC02B813C812230310571F18B8177
:101FA0009C8183309105E9F14FC0ABE3B0E0EBE3F6
:101FB000F0E08081482F8A81282F30E081E090E096
:101FC000022E02C0880F991F0A94E2F784278C938F
:101FD0003BC0A8E3B0E0E8E3F0E08081482F8A81CD
:101FE000282F30E081E090E0022E02C0880F991F78
:101FF0000A94E2F784278C9327C0A5E3B0E0E5E3D9
:10200000F0E08081482F8A81282F30E081E090E045
:10201000022E02C0880F991F0A94E2F784278C933E
:1020200013C0A2E3B0E0E2E3F0E08081482F8A81B0
:10203000282F30E081E090E0022E02C0880F991F27
:102040000A94E2F784278C930F900F900F900F90D3
:10205000CF91DF910895DF93CF9300D0CDB7DEB756
:1020600089836A838981282F30E08A81882F90E0D4
:10207000A90102C0559547958A95E2F7CA0181707A
:102080000F900F90CF91DF910895DF93CF93CDB74D
:10209000DEB7A7E2B0E0E7E2F0E0808180648C93F5
:1020A000A7E2B0E0E7E2F0E080818F778C93A6E2D0
:1020B000B0E0E6E2F0E080818E7F8C93A6E2B0E0B3
:1020C000E6E2F0E0808182608C93A6E2B0E0E6E296
:1020D000F0E0808184608C93A7E2B0E0E7E2F0E07A
:1020E00080818F7D8C93A6E2B0E0E6E2F0E0808113
:1020F00080628C93A0E5B0E0E0E5F0E080818F7D28
:102100008C93A0E5B0E0E0E5F0E080818F7B8C93DC
:10211000A0E5B0E0E0E5F0E080818F778C93A6E267
:10212000B0E0E6E2F0E0808180688C93CF91DF91AF
:102130000895DF93CF93CDB7DEB7A6E2B0E0E6E235
:10214000F0E0808180648C93CF91DF910895DF93DC
:10215000CF930F92CDB7DEB78983A7E2B0E0E7E275
:10216000F0E08081807E8C93A7E2B0E0E7E2F0E0CF
:1021700090818981892B8C930F90CF91DF91089565
:10218000DF93CF93CDB7DEB7A6E2B0E0E6E2F0E0B2
:10219000808188608C93CF91DF910895DF93CF93F6
:1021A000CDB7DEB7E6E2F0E0808182958F70882FB0
:1021B00090E0817090700097A9F3A6E2B0E0E6E2AB
:1021C000F0E0808180618C93CF91DF910895DF935F
:1021D000CF9300D0CDB7DEB79A838983E4E2F0E0F5
:1021E00080819181E981FA81918380830F900F90A2
:1021F000CF91DF910895DF93CF9300D000D0CDB77A
:10220000DEB79C838B838B819C81CC01A0E0B0E006
:10221000BA2FA92F982F88272FEF33E040E050E006
:10222000BC01CD010E94C628DA01C9019A838983C5
:1022300089819A819C01369527958B819C81821793
:10224000930718F41A82198204C081E090E09A83FF
:10225000898389810F900F900F900F90CF91DF911C
:102260000895DF93CF930F92CDB7DEB7898383E0D4
:1022700060E041E00E94BB0A83E061E041E00E942F
:10228000BB0AE4E3F0E08FEF80838981823029F498
:1022900082E061E00E94210D07C08981813021F434
:1022A00082E060E00E94210D0F90CF91DF910895B0
:1022B000DF93CF930F92CDB7DEB789838981882FC3
:1022C00090E0FC01EC50FE4F908182E0692F0E946B
:1022D0006D0F0F90CF91DF910895DF93CF930F9201
:1022E000CDB7DEB789838981813031F483E060E046
:1022F00040E00E94AD0B08C08981823029F483E060
:1023000060E041E00E94AD0B0F90CF91DF91089506
:10231000DF93CF930F92CDB7DEB789838981813068
:1023200031F483E061E040E00E94AD0B08C0898198
:10233000823029F483E061E041E00E94AD0B0F9010
:10234000CF91DF910895DF93CF930F92CDB7DEB792
:1023500089838981823031F483E060E041E00E942A
:10236000BB0A08C08981813029F483E060E040E045
:102370000E94BB0A0F90CF91DF910895DF93CF9316
:102380000F92CDB7DEB789838981823031F483E043
:1023900061E041E00E94BB0A08C08981813029F4D4
:1023A00083E061E040E00E94BB0A0F90CF91DF9193
:1023B0000895DF93CF9300D00F92CDB7DEB78B8314
:1023C0008AE08A83198203C089818F5F898399811A
:1023D0008A819817C8F30F900F900F90CF91DF91DB
:1023E0000895DF93CF93CDB7DEB76F970FB6F8940C
:1023F000DEBF0FBECDBF8F8F8F8D9AE0692F0E94F9
:10240000BA28892F8E8F83E061E040E00E94AD0BF7
:1024100083E060E041E00E94AD0B8E8D882F90E05C
:10242000FC01EC50FE4F908182E0692F0E946D0FFD
:1024300080E090E0A8E4B2E4898F9A8FAB8FBC8FE4
:10244000698D7A8D8B8D9C8D20E030E04AEF54E4CD
:102450000E941F02DC01CB018D8B9E8BAF8BB88F4E
:102460006D897E898F89988D20E030E040E85FE3B8
:102470000E94250488232CF481E090E09C8B8B8BB8
:102480003FC06D897E898F89988D20E03FEF4FE7AF
:1024900057E40E94C50318164CF5698D7A8D8B8D13
:1024A0009C8D20E030E040E251E40E941F02DC01FC
:1024B000CB01BC01CD010E944900DC01CB019C8B0A
:1024C0008B8B0FC088EC90E09A8B898B89899A89D5
:1024D0000197F1F79A8B898B8B899C8901979C8B4B
:1024E0008B8B8B899C89009769F714C06D897E89D5
:1024F0008F89988D0E944900DC01CB019C8B8B8BCE
:102500008B899C89988B8F878F8598890197F1F7A4
:10251000988B8F878F8D9AE0692F0E94BA288D8FB4
:1025200083E060E040E00E94AD0B83E061E041E0C9
:102530000E94AD0B8D8D882F90E0FC01EC50FE4F7A
:10254000908182E0692F0E946D0F80E090E0A8E406
:10255000B2E48B879C87AD87BE876B857C858D8534
:102560009E8520E030E04AEF54E40E941F02DC0127
:10257000CB018F839887A987BA876F8178858985F2
:102580009A8520E030E040E85FE30E94250488233C
:102590002CF481E090E09E838D833FC06F8178852D
:1025A00089859A8520E03FEF4FE757E40E94C503F5
:1025B00018164CF56B857C858D859E8520E030E076
:1025C00040E251E40E941F02DC01CB01BC01CD01BD
:1025D0000E944900DC01CB019E838D830FC088ECF3
:1025E00090E09C838B838B819C810197F1F79C8386
:1025F0008B838D819E8101979E838D838D819E81AA
:10260000009769F714C06F81788589859A850E9443
:102610004900DC01CB019E838D838D819E819A834D
:10262000898389819A810197F1F79A8389836F96CB
:102630000FB6F894DEBF0FBECDBFCF91DF910895E6
:10264000DF93CF930F92CDB7DEB7898383E060E04D
:1026500041E00E94BB0A8981882309F041C083E0E0
:1026600060E041E00E94BB0A82E063E041E00E943A
:10267000BB0A82E064E041E00E94BB0A82E065E0C0
:1026800041E00E94BB0A82E066E041E00E94BB0A92
:1026900082E067E041E00E94BB0A83E060E041E045
:1026A0000E94AD0B82E063E041E00E94AD0B82E04E
:1026B00064E041E00E94AD0B82E062E041E00E94F4
:1026C000AD0B82E065E041E00E94AD0B82E066E088
:1026D00041E00E94AD0B82E067E041E00E94AD0B5B
:1026E0008981813071F582E063E041E00E94BB0A9C
:1026F00082E064E041E00E94BB0A82E063E040E0E7
:102700000E94AD0B82E064E040E00E94AD0B83E0EC
:1027100060E041E00E94AD0B82E062E041E00E9497
:10272000AD0B82E065E041E00E94AD0B82E066E027
:1027300041E00E94AD0B82E067E041E00E94AD0BFA
:1027400085C08981823009F042C082E062E041E0C8
:102750000E94BB0A82E063E041E00E94BB0A82E083
:1027600065E041E00E94BB0A82E066E041E00E9431
:10277000BB0A82E067E041E00E94BB0A83E060E0C0
:1027800041E00E94BB0A82E062E040E00E94AD0BA3
:1027900082E063E040E00E94AD0B82E064E041E053
:1027A0000E94AD0B82E065E040E00E94AD0B82E04C
:1027B00066E041E00E94AD0B82E067E040E00E94ED
:1027C000AD0B83E060E040E00E94AD0B3FC089812B
:1027D0008330E1F582E062E041E00E94BB0A82E0E2
:1027E00063E041E00E94BB0A82E064E041E00E94B5
:1027F000BB0A82E065E041E00E94BB0A82E067E03C
:1028000041E00E94BB0A82E062E040E00E94AD0B22
:1028100082E063E040E00E94AD0B82E064E040E0D3
:102820000E94AD0B82E065E040E00E94AD0B83E0CA
:1028300060E041E00E94AD0B82E066E041E00E9472
:10284000AD0B82E067E040E00E94AD0B0F90CF91AE
:10285000DF910895DF93CF93CDB7DEB7A1E3B0E06A
:10286000E1E3F0E0808180628C93CF91DF91089565
:10287000DF93CF930F92CDB7DEB789838981882309
:1028800029F48CE790E00E9413080FC089818A35F3
:1028900029F48BEB90E00E94130807C08981843BE8
:1028A00021F48AEF90E00E9413080F90CF91DF91FE
:1028B0000895DF93CF93CDB7DEB780E062E041E0CB
:1028C0000E94BB0A80E063E041E00E94BB0ACF9116
:1028D000DF910895DF93CF930F92CDB7DEB7898351
:1028E00080E0698141E00E94AD0B0F90CF91DF91B4
:1028F0000895DF93CF930F92CDB7DEB7898380E041
:10290000698140E00E94AD0B0F90CF91DF91089557
:10291000DF93CF930F92CDB7DEB7898380E06981D3
:102920000E94AE0F0F90CF91DF910895DF93CF9368
:10293000CDB7DEB76D970FB6F894DEBF0FBECDBF33
:102940008D8F80E06D8D41E00E94AD0B80E090E0C6
:10295000AAEFB3E4898F9A8FAB8FBC8F698D7A8D84
:102960008B8D9C8D20E030E04AEF54E40E941F02E2
:10297000DC01CB018D8B9E8BAF8BB88F6D897E89EF
:102980008F89988D20E030E040E85FE30E942504C5
:1029900088232CF481E090E09C8B8B8B3FC06D8969
:1029A0007E898F89988D20E03FEF4FE757E40E94A2
:1029B000C50318164CF5698D7A8D8B8D9C8D20E0A2
:1029C00030E040E251E40E941F02DC01CB01BC0177
:1029D000CD010E944900DC01CB019C8B8B8B0FC089
:1029E00088EC90E09A8B898B89899A890197F1F715
:1029F0009A8B898B8B899C8901979C8B8B8B8B897C
:102A00009C89009769F714C06D897E898F89988D9C
:102A10000E944900DC01CB019C8B8B8B8B899C89AC
:102A2000988B8F878F8598890197F1F7988B8F877F
:102A300080E06D8D40E00E94AD0B80E090E0AAEF59
:102A4000B3E48B879C87AD87BE876B857C858D853E
:102A50009E8520E030E04AEF54E40E941F02DC0132
:102A6000CB018F839887A987BA876F8178858985FD
:102A70009A8520E030E040E85FE30E942504882347
:102A80002CF481E090E09E838D833FC06F81788538
:102A900089859A8520E03FEF4FE757E40E94C50300
:102AA00018164CF56B857C858D859E8520E030E081
:102AB00040E251E40E941F02DC01CB01BC01CD01C8
:102AC0000E944900DC01CB019E838D830FC088ECFE
:102AD00090E09C838B838B819C810197F1F79C8391
:102AE0008B838D819E8101979E838D838D819E81B5
:102AF000009769F714C06F81788589859A850E944F
:102B00004900DC01CB019E838D838D819E819A8358
:102B1000898389819A810197F1F79A8389836D96D8
:102B20000FB6F894DEBF0FBECDBFCF91DF910895F1
:102B3000DF93CF9300D000D0CDB7DEB79C838B83DB
:102B40008B819C8121E08534920718F41A821982C6
:102B500015C08B819C8121E08634920758F08B81CF
:102B60009C8122E08A38920728F481E090E09A83E1
:102B7000898304C082E090E09A83898389819A8165
:102B80000F900F900F900F90CF91DF910895DF93EA
:102B9000CF93CDB7DEB72E970FB6F894DEBF0FBE3A
:102BA000CDBF80E060EF0E942C0F83E06AE10E94BD
:102BB0002C0F83E00E948E1682E00E948E1688E021
:102BC0000E948E1688E20E948E1681E00E948E1668
:102BD0008CE00E948E1680E090E0A0EAB1E48B8742
:102BE0009C87AD87BE876B857C858D859E8520E023
:102BF00030E04AEF54E40E941F02DC01CB018F83D6
:102C00009887A987BA876F81788589859A8520E01A
:102C100030E040E85FE30E94250488232CF481E043
:102C200090E09E838D833FC06F81788589859A85EA
:102C300020E03FEF4FE757E40E94C50318164CF51C
:102C40006B857C858D859E8520E030E040E251E4F7
:102C50000E941F02DC01CB01BC01CD010E94490092
:102C6000DC01CB019E838D830FC088EC90E09C83B8
:102C70008B838B819C810197F1F79C838B838D8162
:102C80009E8101979E838D838D819E81009769F738
:102C900014C06F81788589859A850E944900DC017E
:102CA000CB019E838D838D819E819A8389838981C7
:102CB0009A810197F1F79A8389832E960FB6F8943B
:102CC000DEBF0FBECDBFCF91DF910895DF93CF93CD
:102CD00000D000D0CDB7DEB789836A838981282FE1
:102CE00030E03C832B838B819C818130910531F0D6
:102CF0002B813C812230310531F009C08A81805816
:102D00000E948E1604C08A8180540E948E160F90F5
:102D10000F900F900F90CF91DF910895DF93CF9395
:102D2000CDB7DEB76D970FB6F894DEBF0FBECDBF3F
:102D30008D8FA2E3B0E0E2E3F0E080818D7F8C93A1
:102D40008D8D64E00E942B10882341F4ABE3B0E04A
:102D5000EBE3F0E080818F7E8C9307C0ABE3B0E0C3
:102D6000EBE3F0E0808180618C938D8D65E00E94C3
:102D70002B10882341F4ABE3B0E0EBE3F0E080817B
:102D80008F7D8C9307C0ABE3B0E0EBE3F0E0808194
:102D900080628C938D8D66E00E942B10882341F415
:102DA000ABE3B0E0EBE3F0E080818F7B8C9307C076
:102DB000ABE3B0E0EBE3F0E0808180648C938D8D39
:102DC00067E00E942B10882341F4ABE3B0E0EBE313
:102DD000F0E080818F778C9307C0ABE3B0E0EBE34A
:102DE000F0E0808180688C93A2E3B0E0E2E3F0E061
:102DF000808180618C9380E090E0A0E0B0E4898FD6
:102E00009A8FAB8FBC8F698D7A8D8B8D9C8D20E0D6
:102E100030E04AEF54E40E941F02DC01CB018D8BAD
:102E20009E8BAF8BB88F6D897E898F89988D20E0BE
:102E300030E040E85FE30E94250488232CF481E021
:102E400090E09C8B8B8B3FC06D897E898F89988D9C
:102E500020E03FEF4FE757E40E94C50318164CF5FA
:102E6000698D7A8D8B8D9C8D20E030E040E251E4BD
:102E70000E941F02DC01CB01BC01CD010E94490070
:102E8000DC01CB019C8B8B8B0FC088EC90E09A8B84
:102E9000898B89899A890197F1F79A8B898B8B891C
:102EA0009C8901979C8B8B8B8B899C89009769F7F8
:102EB00014C06D897E898F89988D0E944900DC013C
:102EC000CB019C8B8B8B8B899C89988B8F878F8573
:102ED00098890197F1F7988B8F87A2E3B0E0E2E33E
:102EE000F0E080818F7E8C938D8D60E00E942B10AE
:102EF000882341F4ABE3B0E0EBE3F0E080818F7E28
:102F00008C9307C0ABE3B0E0EBE3F0E0808180613D
:102F10008C938D8D61E00E942B10882341F4ABE3EC
:102F2000B0E0EBE3F0E080818F7D8C9307C0ABE3F2
:102F3000B0E0EBE3F0E0808180628C938D8D62E005
:102F40000E942B10882341F4ABE3B0E0EBE3F0E008
:102F500080818F7B8C9307C0ABE3B0E0EBE3F0E0C4
:102F6000808180648C938D8D63E00E942B10882378
:102F700041F4ABE3B0E0EBE3F0E080818F778C933A
:102F800007C0ABE3B0E0EBE3F0E0808180688C93B6
:102F9000A2E3B0E0E2E3F0E0808180618C9380E026
:102FA00090E0A0E0B0E48B879C87AD87BE876B85FF
:102FB0007C858D859E8520E030E04AEF54E40E94B8
:102FC0001F02DC01CB018F839887A987BA876F81A5
:102FD000788589859A8520E030E040E85FE30E94AB
:102FE000250488232CF481E090E09E838D833FC0EC
:102FF0006F81788589859A8520E03FEF4FE757E418
:103000000E94C50318164CF56B857C858D859E85C1
:1030100020E030E040E251E40E941F02DC01CB01DD
:10302000BC01CD010E944900DC01CB019E838D8350
:103030000FC088EC90E09C838B838B819C810197EF
:10304000F1F79C838B838D819E8101979E838D8375
:103050008D819E81009769F714C06F81788589857D
:103060009A850E944900DC01CB019E838D838D816E
:103070009E819A83898389819A810197F1F79A8346
:103080008983A2E3B0E0E2E3F0E080818F7E8C935D
:103090006D960FB6F894DEBF0FBECDBFCF91DF9116
:1030A0000895DF93CF93CDB7DEB76D970FB6F89441
:1030B000DEBF0FBECDBF8D8FA2E3B0E0E2E3F0E054
:1030C000808182608C938D8D64E00E942B10882318
:1030D00041F4ABE3B0E0EBE3F0E080818F7E8C93D2
:1030E00007C0ABE3B0E0EBE3F0E0808180618C935C
:1030F0008D8D65E00E942B10882341F4ABE3B0E096
:10310000EBE3F0E080818F7D8C9307C0ABE3B0E010
:10311000EBE3F0E0808180628C938D8D66E00E940D
:103120002B10882341F4ABE3B0E0EBE3F0E08081C7
:103130008F7B8C9307C0ABE3B0E0EBE3F0E08081E2
:1031400080648C938D8D67E00E942B10882341F45E
:10315000ABE3B0E0EBE3F0E080818F778C9307C0C6
:10316000ABE3B0E0EBE3F0E0808180688C93A2E316
:10317000B0E0E2E3F0E0808180618C9380E090E059
:10318000A0E0B0E4898F9A8FAB8FBC8F698D7A8D68
:103190008B8D9C8D20E030E04AEF54E40E941F02AA
:1031A000DC01CB018D8B9E8BAF8BB88F6D897E89B7
:1031B0008F89988D20E030E040E85FE30E9425048D
:1031C00088232CF481E090E09C8B8B8B3FC06D8931
:1031D0007E898F89988D20E03FEF4FE757E40E946A
:1031E000C50318164CF5698D7A8D8B8D9C8D20E06A
:1031F00030E040E251E40E941F02DC01CB01BC013F
:10320000CD010E944900DC01CB019C8B8B8B0FC050
:1032100088EC90E09A8B898B89899A890197F1F7DC
:103220009A8B898B8B899C8901979C8B8B8B8B8943
:103230009C89009769F714C06D897E898F89988D64
:103240000E944900DC01CB019C8B8B8B8B899C8974
:10325000988B8F878F8598890197F1F7988B8F8747
:10326000A2E3B0E0E2E3F0E080818F7E8C938D8D6D
:1032700060E00E942B10882341F4ABE3B0E0EBE365
:10328000F0E080818F7E8C9307C0ABE3B0E0EBE38E
:10329000F0E0808180618C938D8D61E00E942B1025
:1032A000882341F4ABE3B0E0EBE3F0E080818F7D75
:1032B0008C9307C0ABE3B0E0EBE3F0E08081806289
:1032C0008C938D8D62E00E942B10882341F4ABE338
:1032D000B0E0EBE3F0E080818F7B8C9307C0ABE341
:1032E000B0E0EBE3F0E0808180648C938D8D63E04F
:1032F0000E942B10882341F4ABE3B0E0EBE3F0E055
:1033000080818F778C9307C0ABE3B0E0EBE3F0E014
:10331000808180688C93A2E3B0E0E2E3F0E08081FA
:1033200080618C9380E090E0A0E0B0E48B879C8784
:10333000AD87BE876B857C858D859E8520E030E0DE
:103340004AEF54E40E941F02DC01CB018F8398876F
:10335000A987BA876F81788589859A8520E030E0D2
:1033600040E85FE30E94250488232CF481E090E08C
:103370009E838D833FC06F81788589859A8520E003
:103380003FEF4FE757E40E94C50318164CF56B85D5
:103390007C858D859E8520E030E040E251E40E94EE
:1033A0001F02DC01CB01BC01CD010E944900DC0100
:1033B000CB019E838D830FC088EC90E09C838B8330
:1033C0008B819C810197F1F79C838B838D819E81FA
:1033D00001979E838D838D819E81009769F714C02C
:1033E0006F81788589859A850E944900DC01CB012F
:1033F0009E838D838D819E819A83898389819A8121
:103400000197F1F79A838983A2E3B0E0E2E3F0E069
:1034100080818F7E8C936D960FB6F894DEBF0FBEC1
:10342000CDBFCF91DF910895DF93CF9300D00F925E
:10343000CDB7DEB79B838A8319820EC08981282F7E
:1034400030E08A819B81FC01E20FF31F80810E94A2
:10345000511889818F5F89838981282F30E08A8183
:103460009B81FC01E20FF31F8081882339F70F90C5
:103470000F900F90CF91DF910895DF93CF93CDB749
:10348000DEB781E00E948E16CF91DF910895DF9321
:10349000CF93CDB7DEB7A0970FB6F894DEBF0FBEBF
:1034A000CDBF8E8F78A36F8F8E8D882F90E008967A
:1034B000880F991F880F991F880F991F0E948E16D9
:1034C0001D8E80C08D8D282F30E08F8D98A1FC013E
:1034D000E20FF31F80810E94511880E090E0A0E08D
:1034E000B0E4898F9A8FAB8FBC8F698D7A8D8B8D6D
:1034F0009C8D20E030E04AEF54E40E941F02DC0182
:10350000CB018D8B9E8BAF8BB88F6D897E898F8918
:10351000988D20E030E040E85FE30E942504882396
:103520002CF481E090E09C8B8B8B3FC06D897E8971
:103530008F89988D20E03FEF4FE757E40E94C50345
:1035400018164CF5698D7A8D8B8D9C8D20E030E0BE
:1035500040E251E40E941F02DC01CB01BC01CD011D
:103560000E944900DC01CB019C8B8B8B0FC088EC47
:1035700090E09A8B898B89899A890197F1F79A8BC8
:10358000898B8B899C8901979C8B8B8B8B899C89E0
:10359000009769F714C06D897E898F89988D0E9484
:1035A0004900DC01CB019C8B8B8B8B899C89988B90
:1035B0008F878F8598890197F1F7988B8F878D8DED
:1035C0008F5F8D8F8D8D883008F47CCF80E090E008
:1035D000A0EAB1E48B879C87AD87BE876B857C852D
:1035E0008D859E8520E030E04AEF54E40E941F0262
:1035F000DC01CB018F839887A987BA876F81788593
:1036000089859A8520E030E040E85FE30E94250448
:1036100088232CF481E090E09E838D833FC06F81EE
:10362000788589859A8520E03FEF4FE757E40E942F
:10363000C50318164CF56B857C858D859E8520E02D
:1036400030E040E251E40E941F02DC01CB01BC01EA
:10365000CD010E944900DC01CB019E838D830FC008
:1036600088EC90E09C838B838B819C810197F1F7A0
:103670009C838B838D819E8101979E838D838D8119
:103680009E81009769F714C06F81788589859A8536
:103690000E944900DC01CB019E838D838D819E8138
:1036A0009A83898389819A810197F1F79A83898323
:1036B000A0960FB6F894DEBF0FBECDBFCF91DF91BD
:1036C00008950F931F93DF93CF93CDB7DEB72F9756
:1036D0000FB6F894DEBF0FBECDBF6C877D878E8797
:1036E0009F878AE0FE013296DF01982F1D929A95FE
:1036F000E9F719828C859D85AE85BF850097A10568
:10370000B10521F480E30E94511851C0198230C0E4
:103710008981082F112707FD10958C859D85AE8521
:10372000BF852AE030E040E050E0BC01CD010E94BE
:10373000C628DC01CB01805D282FCE010296FC015A
:10374000E00FF11F20838C859D85AE85BF852AE023
:1037500030E040E050E0BC01CD010E94C628DA0113
:10376000C9018C879D87AE87BF8789818F5F8983D9
:103770008C859D85AE85BF850097A105B10541F675
:1037800089818150898310C08981282F332727FDA3
:103790003095CE010296FC01E20FF31F80810E945A
:1037A0005118898181508983898188236CF72F96EC
:1037B0000FB6F894DEBF0FBECDBFCF91DF911F9142
:1037C0000F910895DF93CF93CDB7DEB761970FB612
:1037D000F894DEBF0FBECDBF6E877F87888B998B35
:1037E0001A828E8589838E859F85A889B9890097DD
:1037F000A105B10599F58E85805D0E9451184CC0D8
:103800008E859F85A889B9892AE030E040E050E0A4
:10381000BC01CD010E94C628DC01CB018B838A81CB
:10382000282F30E0CE010496FC01E20FF31F8B81BC
:1038300080838E859F85A889B9892AE030E040E0A1
:1038400050E0BC01CD010E94C628DA01C9018E8773
:103850009F87A88BB98B8A818F5F8A838E859F858E
:10386000A889B9890097A105B10551F68A818150CF
:103870008A838A81282F30E0CE010496FC01E20F72
:10388000F31F8081805D0E9451188A81882321F076
:103890008A8181508A83EDCF898161960FB6F89431
:1038A000DEBF0FBECDBFCF91DF910895DF93CF93E1
:1038B00000D000D0CDB7DEB789838981282F30E0D2
:1038C0003C832B838B819C818830910509F470C0E7
:1038D0002B813C81293031055CF58B819C818430C2
:1038E000910509F459C02B813C81253031059CF4A8
:1038F0008B819C818230910509F448C02B813C81E9
:10390000233031050CF045C08B819C8181309105BD
:1039100009F439C067C02B813C812630310509F498
:1039200041C08B819C81873091050CF03EC037C02F
:103930002B813C812C30310509F446C08B819C8160
:103940008D3091055CF42B813C812A303105B1F139
:103950008B819C818B309105A4F52DC02B813C81FE
:103960002E303105B9F18B819C818E3091057CF12F
:103970002B813C812F30310579F18B819C81803105
:10398000910569F12FC097E09A832EC028E02A8321
:103990002BC039E03A8328C08FE28A8325C094E0A7
:1039A0009A8322C025E02A831FC036E03A831CC0D8
:1039B0008AE28A8319C091E09A8316C022E02A83A2
:1039C00013C033E03A8310C08DE28A830DC093E4C4
:1039D0009A830AC01A8208C02DE32A8305C03BE2FD
:1039E0003A8302C085E28A838A810F900F900F90FC
:1039F0000F90CF91DF910895DF93CF93CDB7DEB7CE
:103A000060970FB6F894DEBF0FBECDBF1F86BAC059
:103A10008F85282F30E080E190E002C0880F991F49
:103A20002A95E2F7982F81E0692F0E942C0F8F854D
:103A3000282F30E080E190E002C0880F991F2A957E
:103A4000E2F7982F909581E0692F0E946D0F188AF8
:103A500092C081E068890E949F0C882309F088C089
:103A600080E090E0A0EFB1E48B879C87AD87BE87B4
:103A70006B857C858D859E8520E030E04AEF54E49F
:103A80000E941F02DC01CB018F839887A987BA8728
:103A90006F81788589859A8520E030E040E85FE392
:103AA0000E94250488232CF481E090E09E838D837E
:103AB0003FC06F81788589859A8520E03FEF4FE789
:103AC00057E40E94C50318164CF56B857C858D85DF
:103AD0009E8520E030E040E251E40E941F02DC01BC
:103AE000CB01BC01CD010E944900DC01CB019E83CA
:103AF0008D830FC088EC90E09C838B838B819C81AD
:103B00000197F1F79C838B838D819E8101979E8322
:103B10008D838D819E81009769F714C06F817885B0
:103B200089859A850E944900DC01CB019E838D83A3
:103B30008D819E819A83898389819A810197F1F78A
:103B40009A8389838889882F90E0880F991F880F2E
:103B5000991F982F8F85890F8F5F0E94561C609642
:103B60000FB6F894DEBF0FBECDBFCF91DF910895A1
:103B700088898F5F888B8889843008F46ACF8F8525
:103B80008F5F8F878F85843008F442CF3FCFDF93DC
:103B9000CF93CDB7DEB763970FB6F894DEBF0FBEF5
:103BA000CDBF998B888B6A8B88899989892F9927B2
:103BB00080658F870E9483088F850E94D708888937
:103BC0000E9447098A890E9447090E94CE0980E025
:103BD00090E0A0E2B1E48B879C87AD87BE876B85C0
:103BE0007C858D859E8520E030E04AEF54E40E947C
:103BF0001F02DC01CB018F839887A987BA876F8169
:103C0000788589859A8520E030E040E85FE30E946E
:103C1000250488232CF481E090E09E838D833FC0AF
:103C20006F81788589859A8520E03FEF4FE757E4DB
:103C30000E94C50318164CF56B857C858D859E8585
:103C400020E030E040E251E40E941F02DC01CB01A1
:103C5000BC01CD010E944900DC01CB019E838D8314
:103C60000FC088EC90E09C838B838B819C810197B3
:103C7000F1F79C838B838D819E8101979E838D8339
:103C80008D819E81009769F714C06F817885898541
:103C90009A850E944900DC01CB019E838D838D8132
:103CA0009E819A83898389819A810197F1F79A830A
:103CB000898363960FB6F894DEBF0FBECDBFCF9158
:103CC000DF910895DF93CF9300D000D000D0CDB71F
:103CD000DEB79B838A837D836C838A819B81892F56
:103CE0009927806589830E94830889810E94D7086B
:103CF0008A810E9447090E94AD0889810E940F09AC
:103D00008C819D810E9470090E94CE0926960FB673
:103D1000F894DEBF0FBECDBFCF91DF910895DF9342
:103D2000CF93CDB7DEB7A1E3B0E0E1E3F0E080816F
:103D300080648C93CF91DF910895DF93CF930F929E
:103D4000CDB7DEB789838981882331F483E066E0CB
:103D500041E00E94AD0B08C08981813029F483E0E5
:103D600066E040E00E94AD0B0F90CF91DF91089587
:103D7000DF93CF93CDB7DEB7A1E3B0E0E1E3F0E0AE
:103D8000808180688C93CF91DF910895DF93CF93EA
:103D90000F92CDB7DEB789838981882331F483E020
:103DA00067E041E00E94AD0B08C08981813029F4B1
:103DB00083E067E040E00E94AD0B0F90CF91DF9170
:103DC0000895DF93CF9300D000D0CDB7DEB70E9427
:103DD000C7150E9459140E9445100E948F1E0E9410
:103DE000B81E0E94E3090E94FF090E942A1480E87D
:103DF0000E948E166AE070E080E090E00E94E21B74
:103E000080E00E94C61E81E00E94A7100E949910C7
:103E1000CE0103960E94E7108B819C819695879531
:103E20009C838B8380E80E948E1680E690E00E943F
:103E3000141A80EC0E948E168EE690E00E94141AEE
:103E40008B819C81CC01A0E0B0E0BC01CD010E943F
:103E5000E21B8B819C818432910518F080E00E94E6
:103E60009D1E8B819C818E32910530F080E00E94F6
:103E70009D1E80E00E94C61E8B819C81833291052D
:103E800008F0BECF81E00E949D1EBACF1F920F9214
:103E90000FB60F9211242F933F934F935F936F931D
:103EA0007F938F939F93AF93BF93EF93FF93DF9392
:103EB000CF93CDB7DEB70E943D1A0E94721FCF91FB
:103EC000DF91FF91EF91BF91AF919F918F917F9182
:103ED0006F915F914F913F912F910F900FBE0F9077
:103EE0001F9018950F931F93DF93CF93CDB7DEB735
:103EF000C159D0400FB6F894DEBF0FBECDBF0E94AF
:103F0000C7150E9459140E948F1E0E942A14FE0198
:103F1000E757FF4F108280E80E948E168CE790E0F2
:103F20000E94141A80EC0E948E160E94FC1CFE0156
:103F3000E957FF4F882F90E091838083FE01E55879
:103F4000FF4F80E090E0AAE7B3E480839183A283EF
:103F5000B3838E0109581F4FFE01E558FF4F608162
:103F600071818281938120E030E04AEF54E40E9425
:103F70001F02DC01CB01F80180839183A283B3830C
:103F8000FE01E958FF4F608171818281938120E0B9
:103F900030E040E85FE30E942504882344F4FE01FA
:103FA000EB58FF4F81E090E09183808364C0FE0175
:103FB000E958FF4F608171818281938120E03FEF5A
:103FC0004FE757E40E94C50318160CF043C0FE01EA
:103FD000E558FF4F608171818281938120E030E05C
:103FE00040E251E40E941F02DC01CB018E010B581C
:103FF0001F4FBC01CD010E944900DC01CB01F8013B
:10400000918380831FC0FE01ED58FF4F88EC90E044
:1040100091838083FE01ED58FF4F8081918101974C
:10402000F1F7FE01ED58FF4F91838083DE01AB581D
:10403000BF4FFE01EB58FF4F808191810197119690
:104040009C938E93FE01EB58FF4F808191810097E6
:10405000D1F627C08E010B581F4FFE01E958FF4FC4
:1040600060817181828193810E944900DC01CB01D2
:10407000F80191838083DE01AF58BF4FFE01EB58FA
:10408000FF4F808191818D939C93FE01EF58FF4FEC
:10409000808191810197F1F7FE01EF58FF4F9183E5
:1040A0008083FE01E957FF4F80819181CC01A0E020
:1040B000B0E0BC01CD010E94E21BFE01E957FF4FB9
:1040C000808191818D33910509F018C40E943D1AB9
:1040D00080E80E948E168CE890E00E94141A80EC12
:1040E0000E948E16FE01E058FF4F1082FDC00E9414
:1040F000FC1CFE01E957FF4F882F90E091838083DD
:10410000FE01E359FF4F80E090E0AAE7B3E480832B
:104110009183A283B3838E0107591F4FFE01E35998
:10412000FF4F608171818281938120E030E04AEF0E
:1041300054E40E941F02DC01CB01F80180839183CB
:10414000A283B383FE01E759FF4F608171818281B1
:10415000938120E030E040E85FE30E94250488235B
:1041600044F4FE01E959FF4F81E090E091838083A0
:1041700064C0FE01E759FF4F6081718182819381A4
:1041800020E03FEF4FE757E40E94C50318160CF0FC
:1041900043C0FE01E359FF4F6081718182819381A9
:1041A00020E030E040E251E40E941F02DC01CB013C
:1041B0008E0109591F4FBC01CD010E944900DC014D
:1041C000CB01F801918380831FC0FE01EB59FF4FA3
:1041D00088EC90E091838083FE01EB59FF4F808152
:1041E00091810197F1F7FE01EB59FF4F9183808395
:1041F000DE01A959BF4FFE01E959FF4F808191812E
:10420000019711969C938E93FE01E959FF4F80818F
:1042100091810097D1F627C08E0109591F4FFE01E9
:10422000E759FF4F60817181828193810E9449002B
:10423000DC01CB01F80191838083DE01AD59BF4FD2
:10424000FE01E959FF4F808191818D939C93FE017E
:10425000ED59FF4F808191810197F1F7FE01ED59F2
:10426000FF4F91838083FE01E957FF4F8081918149
:10427000CC01A0E0B0E0BC01CD010E94E21BFE0138
:10428000E957FF4F808191818A309105E8F4FE0162
:10429000EB57FF4F808191819C01220F331FC90191
:1042A000880F991F880F991F280F391FDE01AB5700
:1042B000BF4FFE01E957FF4F80819181820F931F0D
:1042C00011969C938E9307C080E80E948E168DE90C
:1042D00090E00E94141ADE01A058BF4FFE01E05882
:1042E000FF4F80818F5F8C93FE01E058FF4F8081EC
:1042F000843008F4FCCEFE01E15AFF4F80E090E0EC
:10430000AAE7B4E480839183A283B3838E01055A24
:104310001F4FFE01E15AFF4F6081718182819381BD
:1043200020E030E04AEF54E40E941F02DC01CB01A0
:10433000F80180839183A283B383FE01E55AFF4F86
:10434000608171818281938120E030E040E85FE309
:104350000E942504882344F4FE01E75AFF4F81E0C0
:1043600090E09183808364C0FE01E55AFF4F608135
:1043700071818281938120E03FEF4FE757E40E94F3
:10438000C50318160CF043C0FE01E15AFF4F6081CF
:1043900071818281938120E030E040E251E40E940B
:1043A0001F02DC01CB018E01075A1F4FBC01CD015A
:1043B0000E944900DC01CB01F801918380831FC07A
:1043C000FE01E95AFF4F88EC90E091838083FE0163
:1043D000E95AFF4F808191810197F1F7FE01E95A77
:1043E000FF4F91838083DE01A75ABF4FFE01E75A3A
:1043F000FF4F80819181019711969C938E93FE01CE
:10440000E75AFF4F808191810097D1F627C08E0136
:10441000075A1F4FFE01E55AFF4F6081718182816B
:1044200093810E944900DC01CB01F80191838083D4
:10443000DE01AB5ABF4FFE01E75AFF4F80819181E9
:104440008D939C93FE01EB5AFF4F808191810197E0
:10445000F1F7FE01EB5AFF4F918380830E943D1AD2
:1044600080E80E948E16FE01EB57FF4F80819181FC
:10447000CC01A0E0B0E0BC01CD010E94E21B8E01A6
:104480000F571F4FFE01EB57FF4F80819181CC01E9
:10449000A0E0B0E0BC01CD010E94A904DC01CB0189
:1044A000F80180839183A283B383FE01EF57FF4F0E
:1044B000608171818281938120E030E04AEF55E490
:1044C0000E94C5031816ECF48E010F571F4FFE0112
:1044D000EF57FF4F608171818281938120E030E04E
:1044E00040E252E40E941903DC01CB01F801808311
:1044F0009183A283B383FE01E757FF4F81E080835E
:1045000066C1C157DF4F1882CF58D040FE01EF5728
:10451000FF4F608171818281938120E030E44CE91A
:1045200055E40E94C503181634F4F1E0C157DF4F7B
:10453000F883CF58D04081E0C157DF4F2881CF5852
:10454000D0408227882309F040C0C257DF4F18822D
:10455000CE58D040FE01EF57FF4F608171818281BC
:10456000938120E030E04AEF55E40E94250488233F
:1045700034F481E0C257DF4F8883CE58D04081E0C9
:10458000C257DF4F9881CE58D04089278823E9F45D
:104590008E010F571F4FFE01EF57FF4F6081718152
:1045A0008281938120E030E040E152E40E941903CF
:1045B000DC01CB01F80180839183A283B383FE01E8
:1045C000E757FF4F82E0808302C1C357DF4F188255
:1045D000CD58D040FE01EF57FF4F6081718182813D
:1045E000938120E030E44CE955E40E94C50318169D
:1045F00034F4F1E0C357DF4FF883CD58D04081E069
:10460000C357DF4F2881CD58D0408227882309F037
:1046100040C0C457DF4F1882CC58D040FE01EF573E
:10462000FF4F608171818281938120E030E04AEF09
:1046300055E40E942504882334F481E0C457DF4FF9
:104640008883CC58D04081E0C457DF4F9881CC5844
:10465000D04089278823E9F48E010F571F4FFE01B0
:10466000EF57FF4F608171818281938120E030E0BC
:1046700040E052E40E941903DC01CB01F801808381
:104680009183A283B383FE01E757FF4F83E08083CA
:104690009EC0C557DF4F1882CB58D040FE01EF5760
:1046A000FF4F608171818281938120E030E04AEF89
:1046B00054E40E94C503181634F4F1E0C557DF4FE7
:1046C000F883CB58D04081E0C557DF4F2881CB58C5
:1046D000D0408227882309F040C0C657DF4F188298
:1046E000CA58D040FE01EF57FF4F6081718182812F
:1046F000938120E030E44CE955E40E9425048823AE
:1047000034F481E0C657DF4F8883CA58D04081E037
:10471000C657DF4F9881CA58D04089278823E9F4CB
:104720008E010F571F4FFE01EF57FF4F60817181C0
:104730008281938120E030E040EA51E40E94190335
:10474000DC01CB01F80180839183A283B383FE0156
:10475000E757FF4F84E080833AC0FE01EF57FF4FD9
:10476000608171818281938120E030EC49E754E4DB
:104770000E94C50318165CF5FE01EF57FF4F6081DC
:1047800071818281938120E030E04AEF54E40E94FD
:1047900025048823E4F48E010F571F4FFE01EF57C5
:1047A000FF4F608171818281938120E030E040E29F
:1047B00051E40E941903DC01CB01F801808391834D
:1047C000A283B383FE01E757FF4F85E08083FE019C
:1047D000E757FF4F80818130C1F48E010F571F4F83
:1047E000FE01EF57FF4F608171818281938120E04C
:1047F00030E040E252E40E941F02DC01CB01F801EC
:1048000080839183A283B383A9C4FE01E757FF4F3E
:1048100080818230C1F48E010F571F4FFE01EF5788
:10482000FF4F608171818281938120E030E040E11F
:1048300052E40E941F02DC01CB01F80180839183C6
:10484000A283B3838BC4FE01E757FF4F808183307F
:10485000C1F48E010F571F4FFE01EF57FF4F6081CC
:1048600071818281938120E030E040E052E40E9437
:104870001F02DC01CB01F80180839183A283B38303
:104880006DC4FE01E757FF4F80818430C1F48E0173
:104890000F571F4FFE01EF57FF4F608171818281DB
:1048A000938120E030E040EA51E40E941F02DC01E5
:1048B000CB01F80180839183A283B3834FC4FE01AF
:1048C000E757FF4F8081853009F048C48E010F57AC
:1048D0001F4FFE01EF57FF4F6081718182819381ED
:1048E00020E030E040E251E40E941F02DC01CB01F5
:1048F000F80180839183A283B38330C4FE01E9571A
:10490000FF4F808191818A30910508F000CBFE0134
:10491000E957FF4F808191818B32910509F4F7CAE5
:10492000FE01E957FF4F808191818A32910509F498
:10493000EECAFE01E957FF4F808191818D329105CA
:1049400009F4E5CAFE01E957FF4F808191818E325B
:10495000910509F4DCCAFE01E957FF4F808191817E
:104960008334910509F4D3CAFE01E957FF4F8081D2
:1049700091818D33910509F4CACA81EC0E948E168B
:10498000DE01AB57BF4FFE01E957FF4F8081918198
:1049900011969C938E93FE01E158FF4F1082FDC04B
:1049A0000E94FC1CFE01E957FF4F882F90E0918385
:1049B0008083FE01EF5AFF4F80E090E0AAE7B3E466
:1049C00080839183A283B3838E01035B1F4FFE011B
:1049D000EF5AFF4F608171818281938120E030E046
:1049E0004AEF54E40E941F02DC01CB01F8018083EE
:1049F0009183A283B383FE01E35BFF4F60817181EA
:104A00008281938120E030E040E85FE30E9425044A
:104A1000882344F4FE01E55BFF4F81E090E0918341
:104A2000808364C0FE01E35BFF4F608171818281FE
:104A3000938120E03FEF4FE757E40E94C50318162B
:104A40000CF043C0FE01EF5AFF4F608171818281FB
:104A5000938120E030E040E251E40E941F02DC013B
:104A6000CB018E01055B1F4FBC01CD010E944900A7
:104A7000DC01CB01F801918380831FC0FE01E75B5D
:104A8000FF4F88EC90E091838083FE01E75BFF4F4E
:104A9000808191810197F1F7FE01E75BFF4F9183E0
:104AA0008083DE01A55BBF4FFE01E55BFF4F808188
:104AB0009181019711969C938E93FE01E55BFF4FC8
:104AC000808191810097D1F627C08E01055B1F4F31
:104AD000FE01E35BFF4F60817181828193810E94BF
:104AE0004900DC01CB01F80191838083DE01A95BE1
:104AF000BF4FFE01E55BFF4F808191818D939C93B9
:104B0000FE01E95BFF4F808191810197F1F7FE0182
:104B1000E95BFF4F91838083FE01E957FF4F80815E
:104B20009181CC01A0E0B0E0BC01CD010E94E21B6C
:104B3000FE01E957FF4F808191818A309105E8F4A9
:104B4000FE01EB57FF4F808191819C01220F331FA3
:104B5000C901880F991F880F991F280F391FDE017F
:104B6000AB57BF4FFE01E957FF4F80819181820F04
:104B7000931F11969C938E9307C080E80E948E1617
:104B80008DE990E00E94141ADE01A158BF4FFE018A
:104B9000E158FF4F80818F5F8C93FE01E158FF4FFA
:104BA0008081833008F4FCCEFE01EB57FF4F8081FB
:104BB0009181FEE181369F0709F089C180E00E9462
:104BC0003814FE01ED5BFF4F80E090E0AAEFB3E404
:104BD00080839183A283B3838E01015C1F4FFE010A
:104BE000ED5BFF4F608171818281938120E030E035
:104BF0004AEF54E40E941F02DC01CB01F8018083DC
:104C00009183A283B383FE01FF96608171818281CB
:104C1000938120E030E040E85FE30E942504882390
:104C20002CF481E090E09EAF8DAF46C0FE01FF9670
:104C3000608171818281938120E03FEF4FE757E4EB
:104C40000E94C503181664F5FE01ED5BFF4F6081FD
:104C500071818281938120E030E040E251E40E9442
:104C60001F02DC01CB01BC01CD010E944900DC0127
:104C7000CB019EAF8DAF0FC088EC90E09CAF8BAFA7
:104C80008BAD9CAD0197F1F79CAF8BAF8DAD9EAD19
:104C900001979EAF8DAF8DAD9EAD009769F716C0A1
:104CA000FE01FF9660817181828193810E9449009B
:104CB000DC01CB019EAF8DAF8DAD9EAD9AAF89AFBC
:104CC00089AD9AAD0197F1F79AAF89AF8AE50E9455
:104CD000381480E090E0AAEFB3E48DAB9EABAFABAD
:104CE000B8AF6DA97EA98FA998AD20E030E04AEF5A
:104CF00054E40E941F02DC01CB0189AB9AABABAB41
:104D0000BCAB69A97AA98BA99CA920E030E040E856
:104D10005FE30E94250488232CF481E090E098ABA7
:104D20008FA73FC069A97AA98BA99CA920E03FEF72
:104D30004FE757E40E94C50318164CF56DA97EA9EC
:104D40008FA998AD20E030E040E251E40E941F02BC
:104D5000DC01CB01BC01CD010E944900DC01CB018B
:104D600098AB8FA70FC088EC90E09EA78DA78DA56C
:104D70009EA50197F1F79EA78DA78FA598A90197EA
:104D800098AB8FA78FA598A9009769F714C069A958
:104D90007AA98BA99CA90E944900DC01CB0198ABA0
:104DA0008FA78FA598A99CA78BA78BA59CA50197DA
:104DB000F1F79CA78BA780E00E94381410920202A2
:104DC000109201020E943D1A80E80E948E1681EB2B
:104DD00090E00E94141A80E090E0AAEFB3E48FA361
:104DE00098A7A9A7BAA76FA178A589A59AA520E039
:104DF00030E04AEF54E40E941F02DC01CB018BA398
:104E00009CA3ADA3BEA36BA17CA18DA19EA120E01C
:104E100030E040E85FE30E94250488232CF481E021
:104E200090E09AA389A33FC06BA17CA18DA19EA114
:104E300020E03FEF4FE757E40E94C50318164CF5FA
:104E40006FA178A589A59AA520E030E040E251E461
:104E50000E941F02DC01CB01BC01CD010E94490070
:104E6000DC01CB019AA389A30FC088EC90E098A342
:104E70008F8F8F8D98A10197F1F798A38F8F89A1BC
:104E80009AA101979AA389A389A19AA1009769F78A
:104E900014C06BA17CA18DA19EA10E944900DC01E0
:104EA000CB019AA389A389A19AA19E8F8D8F8D8D05
:104EB0009E8D0197F1F79E8F8D8F80EC0E948E164C
:104EC00081EB90E00E94141A0E943D1AA2C0FE01DC
:104ED000EB57FF4F80819181FEE181369F0709F4F6
:104EE00098C0809101029091020201969093020273
:104EF0008093010280910102909102020E9420138E
:104F000080E80E948E1683EC90E00E94141A80ECD8
:104F10000E948E168FEC90E00E94141A80E090E0C0
:104F2000AFE2B4E4898F9A8FAB8FBC8F698D7A8D95
:104F30008B8D9C8D20E030E04AEF54E40E941F02EC
:104F4000DC01CB018D8B9E8BAF8BB88F6D897E89F9
:104F50008F89988D20E030E040E85FE30E942504CF
:104F600088232CF481E090E09C8B8B8B3FC06D8973
:104F70007E898F89988D20E03FEF4FE757E40E94AC
:104F8000C50318164CF5698D7A8D8B8D9C8D20E0AC
:104F900030E040E251E40E941F02DC01CB01BC0181
:104FA000CD010E944900DC01CB019C8B8B8B0FC093
:104FB00088EC90E09A8B898B89899A890197F1F71F
:104FC0009A8B898B8B899C8901979C8B8B8B8B8986
:104FD0009C89009769F714C06D897E898F89988DA7
:104FE0000E944900DC01CB019C8B8B8B8B899C89B7
:104FF000988B8F878F8598890197F1F7988B8F878A
:105000000E943D1A80E80E948E168CE790E00E9474
:10501000141A8091010290910202009749F0809148
:105020000102909102028330910511F00C94871FC8
:1050300080910102909102028330910511F00C944D
:10504000871F80E00E9420130E943D1A80E80E9482
:105050008E1680EC0E948E168AED90E00E94141A43
:1050600080E00E94C61E80E090E0AFE2B4E48B874F
:105070009C87AD87BE876B857C858D859E8520E06E
:1050800030E04AEF54E40E941F02DC01CB018F8321
:105090009887A987BA876F81788589859A8520E066
:1050A00030E040E85FE30E94250488232CF481E08F
:1050B00090E09E838D833FC06F81788589859A8536
:1050C00020E03FEF4FE757E40E94C50318164CF568
:1050D0006B857C858D859E8520E030E040E251E443
:1050E0000E941F02DC01CB01BC01CD010E944900DE
:1050F000DC01CB019E838D830FC088EC90E09C8304
:105100008B838B819C810197F1F79C838B838D81AD
:105110009E8101979E838D838D819E81009769F783
:1051200014C06F81788589859A850E944900DC01C9
:10513000CB019E838D838D819E819A838983898112
:105140009A810197F1F79A8389830E943D1A80E83A
:105150000E948E168CE790E00E94141ACF56DF4F03
:105160000FB6F894DEBF0FBECDBFCF91DF911F9178
:105170000F910895991B79E004C0991F961708F0C4
:10518000961B881F7A95C9F780950895A1E21A2E7B
:10519000AA1BBB1BFD010DC0AA1FBB1FEE1FFF1FDB
:1051A000A217B307E407F50720F0A21BB30BE40B2B
:1051B000F50B661F771F881F991F1A9469F7609572
:1051C0007095809590959B01AC01BD01CF0108952C
:1051D0002F923F924F925F926F927F928F929F9207
:1051E000AF92BF92CF92DF92EF92FF920F931F93F5
:1051F000CF93DF93CDB7DEB7CA1BDB0B0FB6F894A6
:10520000DEBF0FBECDBF09942A88398848885F84E5
:105210006E847D848C849B84AA84B984C884DF8056
:10522000EE80FD800C811B81AA81B981CE0FD11D3A
:105230000FB6F894DEBF0FBECDBFED010895F89410
:02524000FFCF9E
:105242004272696768746E657373203D200054650D
:105252006D70726563686172203D2000456E7465F1
:105262007220796F75722050415353005345542078
:1052720050415353203420444947495400596F75D3
:105282007220496E7075742049732057726F6E6771
:105292000052696768742070617373202E2E2E2E5F
:1052A2002E2E0057726F6E672050415353200054C8
:1052B200525920414741494E2000545259204C41F5
:1052C2005445522E2E2E2E2E2E2E2000000000008F
:1052D20000000000000102020303030304040404AB
:1052E2000404040405050505050505050505050570
:1052F2000505050506060606060606060606060650
:10530200060606060606060606060606060606063B
:10531200060606060707070707070707070707071F
:10532200070707070707070707070707070707070B
:1053320007070707070707070707070707070707FB
:1053420007070707070707070707070707070707EB
:1053520007070707080808080808080808080808CF
:1053620008080808080808080808080808080808BB
:1053720008080808080808080808080808080808AB
:10538200080808080808080808080808080808089B
:10539200080808080808080808080808080808088B
:1053A200080808080808080808080808080808087B
:1053B200080808080808080808080808080808086B
:1053C200080808080808080808080808080808085B
:0E53D2000808080800000000000000000000AD
:00000001FF
